:020000041000EA
:1000000000B5324B212058609868022188439860DF
:10001000D860186158612E4B002199600221596106
:100020000121F02299502B49196001219960352056
:1000300000F044F80222904214D00621196600F024
:1000400034F8196E01211966002018661A6600F04E
:100050002CF8196E196E196E052000F02FF8012189
:100060000842F9D1002199601B49196000215960AB
:100070001A491B48016001219960EB211966A021F2
:10008000196600F012F800219960164914480160C1
:100090000121996001BC002800D000471248134993
:1000A000086003C880F30888084703B5996A0420EC
:1000B0000142FBD001200142F8D103BD02B5186610
:1000C0001866FFF7F2FF186E186E02BD00000240BE
:1000D000000000180000070000035F00212200005C
:1000E000F4000018222000A00001001008ED00E03C
:1000F00000000000000000000000000074B24E7A12
:1001000000200420F7010010C3010010C5010010F9
:10011000C1010010C1010010C1010010C101001097
:10012000C1010010C1010010C1010010C701001081
:10013000C1010010C1010010C9010010CB01001065
:10014000CD010010CD010010CD010010CD01001037
:10015000CD010010CD010010CD010010CD01001027
:10016000CD010010CD010010CD010010CD01001017
:10017000CD010010CD010010CD010010CD01001007
:10018000CD010010CD010010CD010010CD010010F7
:10019000CD010010CD010010CD010010CD010010E7
:1001A000CD010010CD010010CD010010CD010010D7
:1001B000CD010010CD010010CD010010CD010010C7
:1001C00000BE00BE00BE00BE00BE00BEEFF3058054
:1001D000103800BEF2EB887158B5041078B50410E1
:1001E0003402001090A31AE700201F49086006C8D7
:1001F00081F3088810471D48006800282FD10DA4FE
:100200000ECC002902D000F012F8F9E71849194A7B
:10021000002000E001C19142FCD1174988471749ED
:1002200088471749884700BEFDE701C901C29A42C5
:10023000FBD3704778B50410C00000206C17002075
:1002400024CC0410000004200000042024CC04105E
:10025000001004200010042000000000704709482E
:1002600004F0C2F90047000008ED00E0000000D0F3
:1002700070170020183D022029330010910400104F
:10028000E53200105756000006005250ABB36053E1
:10029000A416011006005250861C0302B416011069
:1002A000060052505422A29DC01601100500525063
:1002B000DE65F46824CC0410F8B5C0460448054B4C
:1002C00010B5834203D0044B002B00D0984710BDDB
:1002D0006C1700206C17002000000000064807493A
:1002E000091A8B10C90FC91810B5491003D0044B57
:1002F000002B00D0984710BD6C1700206C17002011
:100300000000000010B5074C2378002B09D1FFF73F
:10031000D5FF054B002B02D0044800E000BF0123AD
:10032000237010BDC8180020000000005803011001
:10033000054B10B5002B03D00449054800E000BF71
:10034000FFF7CCFF10BDC04600000000CC18002015
:100350005803011010B5312004F06AFF00F012FCC0
:10036000C8200DF061FEF6E700B583B00CF008FE82
:100370000D4B186008E0180000F0B6FC00F086FC99
:10038000C82109480DF0F4FD322004F051FF00238C
:100390000193064B1868002201A90CF0A7F8019BF5
:1003A000002BE8D1EAE7C046542C0020242F00207F
:1003B00010B584B0104C01222100002000F0AAF9F1
:1003C00001222100012000F0A5F9332004F030FFC4
:1003D0000A4B1868FA2201A90CF088F80199029AD0
:1003E000039B002000F0DEFB0199029A039B012091
:1003F00000F0D8FBDEE7C04648260110202F002081
:1004000010B500F095F8FA2080000DF00DFEF8E729
:1004100010B500F085F805F031F9E12464022100FF
:10042000002000F0F1F82100012000F0EDF8024872
:1004300004F072FF10BDC0465803011010B5002231
:100440000C2101200BF0A4FE0E4B186000220C21A1
:1004500002200BF09DFE0C4B18600022012114209D
:100460000BF096FE094B186000F020FA00F098FBA4
:1004700000F0C2FB00F058FC00F09AFC00F068FCB1
:1004800010BDC046242F0020202F00201C2F00204C
:1004900030B585B0194804F03FFFFFF7B9FFFFF70B
:1004A000CDFF80256D0003AB019300240094002351
:1004B0002A00134913480DF0C5FB01940094002352
:1004C0002A00114911480DF0BDFB0194009400234E
:1004D0002A000F490F480DF0B5FB0194009400234A
:1004E0002A000D490D480DF0ADFB012103980DF0D8
:1004F00031FC0DF0FBFB012005B030BD7403011091
:100500008C03011001040010980301105503001022
:10051000A403011069030010B4030110B10300101B
:1005200010B507F041FB0121002007F009FB10BDC9
:1005300010B50A4B1B78002B07D10121002007F0D2
:10054000FFFA064B01221A7010BD0021002007F0AF
:10055000F7FA024B00221A70F6E7C046133D02205C
:1005600000B583B0114B9B6910210A001A40194253
:1005700001D003B000BD6B46991D002A09D10B4B79
:100580009B69DB06FBD4094B1B680B700132013100
:10059000F3E76B4606331B786A46D11D0B70044B9C
:1005A0001868002300220BF003FFE2E700800340FD
:1005B0002019002000B583B0114B9B6910210A005F
:1005C0001A40194201D003B000BD6B46991D002AA4
:1005D00009D10B4B9B69DB06FBD4094B1B680B70E5
:1005E00001320131F3E76B4606331B786A46D11DB1
:1005F0000B70044B1868002300220BF0D9FEE2E7D1
:10060000004003401C19002070B5041E03D00128CF
:1006100035D0002070BD344D280002F0E5FB0221EA
:10062000002000F0C7FB0221012000F0C3FB2F498E
:10063000142000F0EDFD0121142000F0BFFD502337
:10064000AB636B6B38221A40294980235B010B4353
:100650001A600022012140200BF09AFD254B186002
:100660001B68002B01D00120D4E7234B1B68DB68FB
:100670002822012121480EF09DF82000CAE7204DD4
:10068000280002F0B1FB0221042000F093FB0221BC
:10069000052000F08FFB1B49152000F0B9FD01215A
:1006A000152000F08BFD5023AB636B6B38221A4092
:1006B000154980235B010B431A6000220121402071
:1006C0000BF066FD114B18601B68002B01D0200059
:1006D000A0E7094B1B68DB68282201210C480EF0BB
:1006E00069F8002096E7C04600400340B5050010B9
:1006F000344003401C190020000F0020BC030110EF
:100700000080034061050010348003402019002060
:10071000E803011030B583B000280DD023E0184B5A
:100720009B699B06FBD41078154B18600131013290
:100730000029F4D022002900541E002A1DD04D1C8F
:100740000B786A46073213700021F1E70D4B9B6965
:100750009B06FBD410780B4B186001310132002945
:10076000F4D022002900541E002A06D04D1C0B781C
:100770006A46073213700021F1E703B030BDC0466E
:10078000004003400080034030B583B0002842D0D1
:10079000002358E06B46DA1D1470002008E0404B3F
:1007A0009B699B06FBD414783D4B1C6001300132E1
:1007B0000028F4D00B780D3B5A425341DBB2013193
:1007C0000C78002C6AD0002BE4D1364B00229B5EC3
:1007D000A3420FD06B46DA1D147000200028E9D127
:1007E0002F4B9B699B06FBD414782D4B1C6001306A
:1007F0000132F3E76B46DA1D0D2313700020002849
:10080000E8D1274B9B699B06FBD41578244B1D60D0
:1008100001300132F3E70023D2E76B46DA1D147092
:10082000002008E0204B9B699B06FBD414781E4BEC
:100830001C60013001320028F4D00B780D3B5A4285
:100840005341DBB201310C78002C27D0002BE4D1CE
:10085000144B02229B5EA3420FD06B46DA1D14702C
:1008600000200028E9D1104B9B699B06FBD414782B
:100870000D4B1C6001300132F3E76B46DA1D0D238E
:10088000137000200028E8D1074B9B699B06FBD41E
:100890001578054B1D6001300132F3E703B030BD20
:1008A00000400340AC3B002000800340014B00228D
:1008B0001A607047041C002010B50249024804F079
:1008C0005BFD10BDAC370020140401100B00402963
:1008D00009D80F211940402809D80F2318400001DA
:1008E0000843C0B270470F2119400931F3E70F23C5
:1008F00018400930F3E70F231840092801D8303099
:1009000070473730FCE703099F2802D830331800BE
:10091000704737331800FBE710B5002303E0445C51
:10092000E318DBB201319142F9DB5842C0B210BD8D
:1009300070B50D4B1B68DE1E023B0C4CE15CA05DEC
:10094000FFF7C4FF0500320001212000FFF7E4FF9C
:10095000040002002900064804F00EFDA54201D063
:10096000002070BD0120FCE7502C0020382F002013
:1009700018040110F8B51F4B197AD879FFF7A6FFB4
:1009800000F03BF905001C4C3A2323700120FFF7CF
:10099000BAFF070060700120FFF7ADFF0600A070EE
:1009A0000320FFF7B0FFE0700320FFF7A4FF2071E2
:1009B0006771A671EDB22800FFF7A5FFE07128006E
:1009C000FFF799FF2072082201212000FFF7A4FF02
:1009D0000500FFF798FF60722800FFF78CFFA072F8
:1009E0000D23E372033B237300236373FFF764FF5C
:1009F000F8BDC046382F0020AC370020F0B583B0DA
:100A0000274C217AE079FFF761FF0500A17A607A2F
:100A1000FFF75CFF0100280000F012F90190214C63
:100A20003A2323700120FFF76EFF0600607001205B
:100A3000FFF761FF0700A0700620FFF764FFE0707A
:100A40000620FFF758FF20716671A7712800FFF795
:100A50005AFFE0712800FFF74EFF20726B461E79A7
:100A60003000FFF750FF60723000FFF744FFA072C4
:100A70000A2201212000FFF74FFF0500FFF743FF87
:100A8000E0722800FFF737FF20730D236373033BE9
:100A9000A3730023E373FFF70FFF03B0F0BDC0465D
:100AA000382F0020AC37002010B5034B1979D878C7
:100AB000FFF70CFF10BDC046382F002010B5FFF720
:100AC00037FF002805D0FFF7EFFF032805D00628E1
:100AD00006D0054B00221A6010BDFFF74BFFF8E768
:100AE000FFF78CFFF5E7C046041C002070B500201E
:100AF00004F04EFCC4B2FF2C00D170BDFF250540B0
:100B000029001C4804F038FC1B4B1B68002B0DD13E
:100B10003A2CF2D1194B00221A60194B1C70164B5B
:100B200001321A60280004F091FBE6E7012BE4D1C2
:100B3000124A136801331360FA229200934205DDD2
:100B400000230D4A13600D4A1360D6E70C4EF4548F
:100B5000280004F07BFB094B1B68F25C0A2ACCD10D
:100B6000013B074AD35C0D2BC7D1034B04221A600B
:100B7000C3E7C0462C040110041C0020502C0020A8
:100B8000382F002010B5FFF7B1FF044B1B68042B72
:100B900000D010BDFFF792FFFBE7C046041C002009
:100BA00070470000F0B5C64600B590B0040005914E
:100BB00006920793069D079B9846059804F04AF90C
:100BC00006000F00404604F045F902900391281CEE
:100BD00004F040F90090019132003B00054908A85B
:100BE00003F0D0FC08A92000FFF7CEFD10B080BCB8
:100BF000B846F0BD34040110704710B5022819D072
:100C00000BDC002811D0012804D100F0C5F804F055
:100C1000EEF809E00120404206E0032802D100F08E
:100C2000A9F801E00120404210BD00F0AFF804F047
:100C3000DEF8F9E700F0B6F804F0D9F8F4E70000C0
:100C400010B582B004000A0001000C4804F094FBC7
:100C5000002C0FD10A4804F05FFB0123019301220D
:100C6000084B18680023524201A90BF0D9FA012061
:100C700002B010BD044804F04FFBF8E75004011027
:100C800068040110242F00207804011010B588B0EA
:100C9000124B1B68002B01D008B010BD00F06AF8A1
:100CA000040001000E4804F067FB210005A800F0D5
:100CB00041F8059B0293069B01930393079B0193C5
:100CC00004930122074B18680023524202A90BF03B
:100CD000A7FA601C00F054F8DEE7C046403500205B
:100CE00094040110202F002010B50400022801D028
:100CF000042802D10A4B02221A60012C04D0032CD2
:100D000002D0012C07D010BD064804F005FB044BAF
:100D100000221A60F5E7002000F032F8F3E7C04641
:100D200040350020A4040110014B02221A607047D4
:100D30004035002030B50B004900CB189B0003491B
:100D4000C918030034C934C330BDC046443500203F
:100D500010B5002309E0064A5900C8188400002095
:100D6000A0501219506090600133312BF3DD10BD9B
:100D700044350020014B18687047C0469C3700205E
:100D8000014B18607047C0469C370020014B186823
:100D90007047C046A0370020014B18687047C04616
:100DA000A4370020014B18687047C046A8370020C0
:100DB0007047000010B58300084A944663441C68DD
:100DC00040226240C02414408022520113431C6020
:100DD000C000034B9C466044416010BD04C001400C
:100DE0000040014080000B4B9C46604400290DD020
:100DF0000823002A0CD004221343026853400C221B
:100E00001340802252011043036070470023F0E733
:100E10000022F1E704C00140002909D08000094BFD
:100E20009C46604480239B01184302230360704763
:100E30008000044B9C466044C0239B01184302235E
:100E40000360F4E704C0014070B5D0231B061B68A3
:100E50009D00094C2C59204207D19B002043064C91
:100E600018510D2000F0FEF970BD044B044ACC214E
:100E7000044802F03BFAC046282F0020B8040110B5
:100E800080050110E404011010B50400D0231B06F6
:100E90001B689B000A4A9B5818420BD00D2000F09B
:100EA000FBFAD0231B061B6805499B005A58A24336
:100EB0005A5010BD034B044AD621044802F016FADA
:100EC000282F0020300501105C050110E4040110FA
:100ED000072303409B00C00899403C308000014B31
:100EE000C150704700400140F8B507000C001600E3
:100EF0001D00FFF7EDFFFB089B00ED1807203840B1
:100F000080008440002E04D080239B011D432C6070
:100F1000F8BDC0239B011D432C60F9E710B5D02319
:100F20001B061B68002B03D0024BFFF7DDFF10BD33
:100F3000014BFAE7304101400041014010B5012367
:100F40008340D0221206936293610521FFF732FF9E
:100F500010BD0000034B1B6802201840431E98413F
:100F6000C0B2704700C00640EFF3108072B6034B6A
:100F70001B68002BFBD0BFF35F8F70472C0100D0A4
:100F8000BFF35F8F024B00221A6080F31088704716
:100F90002C0100D0F8B506000C001500FFF7E4FFA7
:100FA000E308F718F15C07222240012393400B422B
:100FB00005D1DBB20B433B70FFF7E2FFF8BD210028
:100FC000280002F02DFAF0B583B00600019114005C
:100FD0001F00FFF7C9FF00E00134BC420CD8E30852
:100FE000F518F35C0721214001228A401A42F3D10F
:100FF000D2B21A432A7001E001246442FFF7C0FF15
:10100000002C02DB200003B0F0BD019B002BF9D0C7
:10101000089802F005FA000070B505000C00FFF713
:10102000A3FFE308EE18EA5C07210C400123A3406C
:10103000134204D09A433270FFF7A2FF70BD034BF6
:10104000034A2C31034802F051F9C046B40501109F
:1010500020060110D4050110002307E0054A9A1864
:101060009200BFF35F8F0021116001331F2BF5D970
:101070007047C04640000034054A1078431CDBB27C
:101080001370172B02D9130010221A707047C04634
:10109000F80D002010B50100024A0348FFF77AFF5F
:1010A00010BDC04630060110B41E002000B583B04C
:1010B0000100044B00931F2318220348FFF783FF0E
:1010C00003B000BD50060110B41E0020074B9B6802
:1010D000103080001950BFF35F8FBFF35F8F044B58
:1010E0000021196082F310887047C04600ED00E0CF
:1010F000240100D01F23181A7047000010B5091AE8
:10110000081F0A4B9C466144094A914208D8C3070C
:1011100006D440104005400D064B184380B210BD68
:10112000054B064AA321064802F0E0F8FC07000040
:10113000FE0F000000E0FFFF6C060110E408011044
:101140009C06011010B5091A04394C08090B08D186
:101150004905490D064A11430180064B234343804C
:1011600010BD054B054AAB21054802F0BFF8C0464B
:1011700000F0FFFF00F8FFFFE4060110B8080110BF
:101180009C06011001238340034A10681840431E47
:101190009841C0B27047C04600E100E0002904D089
:1011A000034B1860034B18607047034B1860FBE754
:1011B00080E200E000E100E080E100E010B5012302
:1011C00083401800FFF7EAFF10BD000001238340B1
:1011D000014A13607047C04600E200E0024B9B6882
:1011E00010308000C058704700ED00E010B5FFF7E8
:1011F000F5FF002805D0054BC01A2F2803D8012081
:1012000010BD0020FCE70020FAE7C046FC0D0020DE
:1012100070B504000D00EFF3108672B60C4B1B681E
:10122000002BFBD0BFF35F8F2000FFF7D7FF094BE8
:10123000984201D0A84205D1320029002000FFF7D2
:1012400045FF70BD044B054A8621054802F04EF863
:10125000240100D0CD010010F4060110180901107E
:101260009C060110F0B5DE4657464E464546E0B5B1
:1012700089B0814601911500EFF3108A72B6744B64
:101280001B68002BFBD0BFF35F8F724B0027DF572B
:10129000002F40DB7C00E419A4006F4824180622CC
:1012A000A2566C4B1A706D4B9A684B4610339B00DC
:1012B000D35898461E001B1A2F2B38D9684B9845D7
:1012C0002FD105AE674B33807B009B46D819800039
:1012D000614B9846404402306349FFF70FFF70802E
:1012E000624BB380FF23B371F571019B07935F4499
:1012F000BF0047440ECE0EC701231C43A0465246F2
:1013000041464846FFF7E2FE09B0F0BCBB46B24694
:10131000A946A046F0BD564B564AD721564801F083
:10132000E5FF564B534ADE21534801F0DFFFC0432F
:1013300040440C2103F0ACF9002912D101239E4353
:10134000B34633000026DA79AA4211D9062159564C
:1013500000290CDB4A00521892001E003E4B9B18DD
:10136000F1E7474B434AEA21434801F0BFFF1E0023
:10137000002E3AD005AB434A1A80813A5A800623A0
:10138000F3560293002B17DA3F4805AB9B46988033
:10139000029A9A71DD71019A0792301D2100FFF7C0
:1013A000ADFEB080B7717B00DB199B002A4FFF18A0
:1013B0005B4607CB07C7A2E77800C0198000264B21
:1013C000C0180430321DB388D90A1C2907D15B0527
:1013D0005915023149005118FFF790FED5E72B4B04
:1013E0002B4AB121244801F081FF05AE1D4B33800B
:1013F0007B000293D8198000174A904602004244AD
:101400000392901C1849FFF779FE7080039A101D13
:101410005946FFF773FEB0801E4B5A464146521A9A
:10142000524153431B0DB371F571019A0792029B10
:101430009C466744BF0047440ECE0EC7114B5A4628
:101440001380813B538001231C43A04657E7C046CD
:10145000240100D0113D0220FC0D002000ED00E031
:10146000CD01001000A1FFFF2C0E002001BDFFFFE9
:101470002C070110000901109C06011054070110EF
:101480007C0701100148000001BD0000F0070110B9
:10149000F0080110AAAA0000F0B5CE46474680B574
:1014A00083B006000D00EFF3108872B6564B1B6830
:1014B000002BFBD0BFF35F8F544B9A68340010347D
:1014C000A300D758524B9F4207D0AF4200D198E0BB
:1014D0000197504BFB1A2F2B09D942463900300097
:1014E000FFF7F4FD03B0C0BCB946B046F0BD300014
:1014F000FFF748FE814600213000FFF75FFEBFF393
:101500005F8FEFF30581002901D08C4211D10123B7
:10151000019C9C430022A368AB4212D00622A25633
:10152000002A0DDB53009B189B002200394CE41865
:10153000F1E73621384B394AFF31394801F0D6FE00
:101540002200AB4256D106256557002D38DB6B00D3
:101550005B199A002F4B9B189A68A260DA79E271A6
:1015600006229A56A2719B795BB2002B0FDA2D48A6
:10157000A0806B005B199B00264AD3182A4A117879
:101580009971157049463000FFF718FEA5E7201D38
:101590006B005B199B001F4A9B181A1D9B88D90A78
:1015A0001C2907D15B055B15023359005118FFF761
:1015B000A5FDDDE71D4B1E4AB121194801F096FE3D
:1015C000002912D1002A0ED0FF239371194B93806A
:1015D000154A1378A371184B0E49641A644163438A
:1015E0001B0D1370CEE70A4FF2E7201D1349FFF7DA
:1015F000A9FDC7E76A21124B084AFF31084801F0EC
:1016000075FE034F69E7C046240100D000ED00E0FD
:10161000CD010010FC0D002008080110D0080110B9
:101620009C06011001BD0000113D0220F0070110D1
:10163000F008011001BDFFFFAAAA0000360E00202D
:101640003C08011010B5032304009C43064A94464D
:10165000644422681840C000FC3383409A4313005E
:1016600081400B43236010BD00E400E070B5012110
:1016700001432E4BCB1A2F2B28D8EFF30583002BD9
:101680002BD0EFF3108C72B6294A1268002AFBD0D7
:10169000BFF35F8F274A0400244D641B64416243FB
:1016A000120D54B2244A92689B00D2588A421BD031
:1016B0000022032A32D853009B189B001B49CB18E9
:1016C0009B795BB2A3421FD00132F2E7C7211B4BCB
:1016D0001B4A49001B4801F009FE92211A4B184A87
:1016E000FF31184801F002FE134A92681749D150A1
:1016F000174B1A7882711C70BFF35F8F0C4B00225E
:101700001A608CF3108870BD0D0053009918890081
:101710006918FF268E710F4A8A80E9E7D1210E4BA6
:10172000074A4900074801F0E1FDC046FC0D0020D2
:10173000240100D0AAAA000000ED00E04408011036
:101740009C0801109C0601106C080110CD010010CE
:10175000113D022001BDFFFF780801100022044B5B
:1017600002E0044902C30132072AFAD97047C04691
:1017700000E400E08080808010B5FFF7BBFC010032
:101780000148FFF749FC10BD173D022000B583B0AA
:101790000100064B0093052300220548FFF713FCC8
:1017A000002801DB1F23181A03B000BD80080110B8
:1017B000173D022070B504000E001500FFF75CFC19
:1017C0000100200000F006F8A680E580BFF35F8FDF
:1017D00070BD0000024B9C46614489000160704767
:1017E0004000003410B50400FFF746FC0100200063
:1017F000FFF7F0FF01235B426360BFF35F8F10BD13
:1018000010B50400FFF738FC01002000FFF7E2FFED
:1018100001235B42636000232372BFF35F8F10BD1F
:10182000034B9C46614489000160BFF35F8F7047A2
:101830004000003410B504000120FFF737FC010020
:101840002000FFF7EDFF10BD70B505000C0008008B
:1018500000F0BEFF0949200000F0FEFEFFF70CFC7F
:10186000074B9C466044800068602C75D0231B06A3
:101870001B786B75A400034BE55070BD851B0010F1
:1018800040000034682C002010B5084B1A68EFF3B4
:10189000108172B61368002BFCD0BFF35F8F034832
:1018A0000AF0C0F80020002110BDC04624350020F9
:1018B00010B5002922D003681B7B99421ED8174B14
:1018C0009C466144090183689C4661440C684968F0
:1018D000002A19D003681B7B9A4215D883680F48E9
:1018E0008446624412019A1810685368020001206D
:1018F0008B4201D80ED00020C0B210BD084B094A5F
:101900003C21094801F0F2FC054B064A3C210648FF
:1019100001F0ECFCA242EFD8EDE7C046FFFFFF0F5D
:10192000200B0110B40D0110DC0A011010B50029C4
:101930001ED0037B99421BD84B005B18033B046805
:10194000A4466344002919D0002A1DD0914221D019
:10195000002A25D0047BA24222D8046850008018B7
:10196000033820188170197800291FD11A7010BD12
:10197000104B114A6821114801F0B8FC104B114A74
:101980006F310E4801F0B2FC0F4B0E4A70210B482C
:1019900001F0ACFC0D4B0B4A7121084801F0A6FC8C
:1019A000044B054A6821054801F0A0FC41701A70FB
:1019B000DDE7C046440B0110340E0110600B01102E
:1019C000B40B0110100E0110C00B0110CC0B011054
:1019D00070B506000D001400002914D0002A14D0A0
:1019E000806873689847002806D0220029003000DC
:1019F000FFF79CFF280007E02A0021003000FFF7D6
:101A000095FF200000E0100070BD0800FCE700001A
:101A1000F0B583B00500009201930AAB1C780BABC4
:101A20001F78002C26D003685A7B944207D10123EB
:101A3000002B19D1002C3BD1200003B0F0BD002CAD
:101A40000CD01A7B944209D81A6863001B19033B17
:101A5000D3189B78002BEBD00123E9E73E4B3F4A9C
:101A600068213F4801F042FC3E4B3F4A67213F4816
:101A700001F03CFC03689C7B002CDBD012D01A7B6D
:101A800094420FD862001219033A19688C466244D6
:101A900051789973002900D1D97300239370537042
:101AA0001370C7E72C4B2D4A68212D4801F01EFC0E
:101AB000002C3AD02B681B7B9C4236D82C4BE31869
:101AC0001B01AA6894466344009A1A60019A5A60FE
:101AD000089A9A60099ADA602E68002C2BD030D0D0
:101AE000337B9C422DD863001B19033B326894461C
:101AF000634400229A705A701A70717B2200300081
:101B0000FFF766FF7073844200D095E7287D009A46
:101B1000019B00F0E9FD061E01D0002F17D00C9BA1
:101B2000002B00D188E71E7086E7124B124A3C2139
:101B30000E4801F0DBFB114B114AA521084801F0CA
:101B4000D5FB054B054A6821054801F0CFFB286805
:101B5000210001F03FF8E2E7440B0110340E0110C0
:101B6000600B0110E40B0110400E0110DC0A0110A3
:101B7000FFFFFF0F200B0110B40D0110D80A011058
:101B8000240E0110F0B5DE4657464E464546E0B5F8
:101B90008BB00990002308938200B54BD6583700CC
:101BA00052E0B44BB44A3F21B44801F09FFBB44B20
:101BB000B44A3C21B44801F099FB002901D1002826
:101BC00069D10021404600F0FBFFA04219D12A68EC
:101BD0006B6806920793AB689846EB689A46434653
:101BE000002B14D0002C18D03B681B7B9C4214D8CF
:101BF000631EFA68D35C08931B0218433861002007
:101C000015E0A24BA24A8E219F4801F06FFBA14B29
:101C10009F4A92219C4801F069FB994B9E4A4121C1
:101C2000994801F063FB00239A46984600207B68A0
:101C3000BFF35F8F00221A6086F310884346002BA3
:101C400032D1002800D10CE100F0C2FC02000B1ED2
:101C5000A7DB00200021069007917868EFF310863B
:101C600072B601680029FCD0BFF35F8F39688846DF
:101C70004C7B002CD7D09AD0097B8C4297D88749CF
:101C800065182D01B9688C46654428686968801A12
:101C90009941002991DD2A686B68099800F024FDBC
:101CA00000239A469846C2E7089B1B0223439946A5
:101CB00051461800C04705000E007A68EFF3108BFC
:101CC00072B6136859424B41D9B2002BF9D1BFF318
:101CD0005F8F002E1EDB002E46DD3B69002B47D0B8
:101CE0004B456DD100F074FC02000B1E6EDB5219E7
:101CF0007341002B70DB002B72DB0021049101315A
:101D00000391029451460191414600913800FFF73A
:101D10007FFE4CE03B69002BDDD04B4514D1069A89
:101D2000079B521BB341002B14DB002B16DB002159
:101D30000491013103910294514601914146009171
:101D40003800FFF765FE32E0554B514AA1214E485D
:101D500001F0CCFA01225242524BE6E7454B464A8B
:101D60003F21464801F0C2FA002E01D1002DB4D126
:101D70003B68002C50D05A7B944237D10121002976
:101D80004AD1DA7B002A4DD19A7B002A03D1DA7B33
:101D9000002A5AD19C73DC73002C5CD03B681B7BFF
:101DA0009C4258D8FA68013C135D01331355002357
:101DB0003B617A68BFF35F8F13608BF3108843E752
:101DC000374B334AA421304801F090FA294B2A4A74
:101DD0003F212A4801F08AFA01225242314B8AE718
:101DE000244B254A3F21254801F080FA002C0DD0D4
:101DF0001A7B94420AD862001219033A1868844682
:101E000062449278002ABAD00121B8E7264B274ACB
:101E10006821274801F06AFA264B274AF621244810
:101E200001F064FA002A0AD0197B8A4207D85100CF
:101E30008A18033A19688C4662445470A4E71A4B16
:101E40001A4A68211A4801F051FA1C4B1A4AFB2120
:101E5000174801F04BFA0A4B0F4A41210A4801F09A
:101E600045FA0BB0F0BCBB46B246A946A046F0BD51
:101E7000682C002094090110800D0110B009011098
:101E8000200B0110B40D0110DC0A01100C0C011024
:101E9000980D0110240C0110EC0D0110FFFFFF0F35
:101EA000300C0110FFFFFF7F440B0110340E0110B6
:101EB000600B01106C0C0110000E0110900C011051
:101EC00010B50C4B5B68002B04D00A210A48FFF7C1
:101ED00081FC10BD074C2300084A1021206800F047
:101EE00061FD032000F050FB03212000FFF7ACFC54
:101EF000EBE7C046440E002024350020B118001046
:101F000010B5064B5B68002B01D0044810BD044B94
:101F1000044A5E21044801F0E9F9C046440E00205D
:101F2000A40C0110D40D0110DC0A011070B50500DD
:101F3000182002F0DFFF040002000C49280000F026
:101F400038FD20601021280002F0F2FFA06001217E
:101F5000280002F0EDFFE060012000F029FB010005
:101F60002000FFF771FC200070BDC046B1180010C2
:101F700010B50400164B98421DD0037D9900154AF8
:101F80008A5882421DD19B00124A00219950006854
:101F900000F025FD207D002100F05EFB207D00F09B
:101FA000FFFAE06802F0E4FFA06802F0E1FF200021
:101FB00002F0DEFF10BD084B084AD321084801F0AB
:101FC00095F9084B054AD721054801F08FF9C0461D
:101FD000440E0020682C00203C080110C00D0110A8
:101FE000DC0A0110C80C0110F0B5DE4657464E461B
:101FF0004546E0B58BB0804616001F00149B9A46FC
:10200000159B994616AB1B789B461F2302AA944644
:10201000634400221A702BE0002809D0424612685F
:10202000127B904204D8421E4146C9688A5C41E056
:10203000404B414A4121414801F058F907984CE092
:10204000361BAF41002F07DB002F11DA3C4B3D4A16
:102050003F213D4801F04AF9012676423B4FF3E724
:10206000374B384A3F21384801F040F9002F4FDB09
:1020700043465A68EFF3108472B6136859424B41D5
:10208000D9B20791002BF8D1BFF35F8F1F3302AA9B
:102090009446634404930023039302934B460193B5
:1020A0005346009332003B004046FFF7B1FC031E4D
:1020B000B2D1020041464968BFF35F8F00250D6031
:1020C00084F31088002B29D01F2302A98C46634477
:1020D0001B78002BB2D112021043002B20D05B469C
:1020E000002B1DD04946D04704000D0003000B43D0
:1020F0001DD00029A4DB00F06BFA06000F1EAFDB39
:1021000036196F41002FB1DA012676420F4FADE745
:102110000B4B0C4A3F210C4801F0E8F801204042EB
:102120000BB0F0BCBB46B246A946A046F0BD07982E
:10213000F6E7C046200B0110EC0D0110DC0A01107F
:1021400094090110800D0110B0090110FFFFFF7FFD
:10215000F0B589B005001F21694400200870686847
:10216000EFF3108772B601680029FCD0BFF35F8FD0
:102170001F216944049101210391002102910F99CB
:1021800001910E9900912800FFF742FC0400031E04
:1021900012D106006A68BFF35F8F0021116087F3D8
:1021A0001088002B1CD01F236B441B78002B13D1ED
:1021B0003002204309B0F0BD002807D02A68127B06
:1021C000904203D8421EE9688E5CE3E7064B074A5B
:1021D0004121074801F08AF8287D00F019FBE7E764
:1021E00001204042E6E7C046200B0110EC0D011033
:1021F000DC0A0110F8B50400002900D162E0426851
:10220000EFF3108572B6136858424341D8B2002BE1
:10221000F9D1BFF35F8FCBB22268567BB3421BD19B
:102220000120002848D0206988422BD0090AC9B271
:10223000002B2ED02068007B83422AD8581EE668E7
:10224000305C88422BD000206368BFF35F8F002290
:102250001A6085F31088F8BD002B0DD0167BB342B1
:102260000AD85E00F618033E1768BC466644B67886
:10227000002ED6D00120D4E7134B144A682114480D
:1022800001F034F82C21134B134AFF31134801F0AD
:102290002DF8134B134A4121104801F027F819007B
:1022A000100000F097FC0028CED199210E4B0A4A6D
:1022B00049000A4801F01AF823698B42C4D100236F
:1022C0002361C1E70020C6E7440B0110340E011062
:1022D000600B0110F00C0110680D0110DC0A0110F8
:1022E000200B0110EC0D0110140D0110407D704702
:1022F000F0B587B006000F00EFF30583002B1FD168
:1023000096246442E517A4197D418D4202D803D179
:10231000844201D900240025002D14DB0494059586
:1023200000F056F902000B1E13DBA41A9D41002D8C
:1023300017DC14D03000390000F056F907B0F0BDBA
:10234000204801F06DF8204B204A3F21204800F042
:10235000CDFF1D4B1D4A3F211D4800F0C7FF002C3B
:10236000E8D0FFF7CDFD002302930193194B0093B2
:10237000049A059BFFF738FE002812DADAE70023FB
:1023800000E00023002BD5D1134B1A68EFF3108126
:1023900072B61368002BFCD0BFF35F8F0E4809F0B4
:1023A000DBFA0499059A0D4B5B6A9A42E9D80B480F
:1023B000806A884203D29A42E1D00123E2E70123F6
:1023C000E0E7C046180D011094090110800D0110BE
:1023D000B009011089180010243500200040054084
:1023E00070B504000D0000F0F3F802000B1E0ADBCC
:1023F000200029008018594100290ADB00290CDB44
:10240000FFF776FF70BD084B084A3F21084800F0EF
:102410006DFF012040420749F0E7034B034A3F218B
:10242000034800F063FFC04694090110800D0110BD
:10243000B0090110FFFFFF7F10B5FA2292000023C0
:10244000002102F0BBFCFFF7CBFF10BD70B584B0DC
:1024500005000C00EFF30583002B1ED1FFF750FDA4
:10246000002302930193224B00932A002300FFF7DD
:10247000BBFD061E23DD20BFFFF742FD3100FFF745
:10248000B9FE1C4B5B6A9C422DD81A4A926AAA423A
:102490002CD29C4225D0012026E0164B5B6A994243
:1024A00009D8144A926A824207D2994201D0012087
:1024B0001AE0002018E0002016E0012014E00D4B87
:1024C0005B6A9C4209D80B4A926AAA4207D29C4294
:1024D00001D0012008E0002006E0002004E00120F7
:1024E00002E0002000E0002004B070BD0120FBE706
:1024F000891800100040054070B5EFF305801038D2
:10250000EFF3108C72B61A4B1B68002BFBD0BFF395
:102510005F8F01221300834016494B6316490B60FD
:10252000164909780C00C440224214D0114A546A5A
:102530008200134D5259944206D38200114C125915
:1025400099430E4B197007E00A4A031D9B009958E6
:102550009950002200E00022BFF35F8F044B00215E
:1025600019608CF31088002A00D0904770BDC046D7
:10257000280100D0004005403C700540163D022077
:1025800030350020741D002010B50100024A0348B8
:10259000FEF700FD10BDC046600E01100F3D022089
:1025A00010B501000148FEF737FD10BD0F3D0220B8
:1025B00000B583B00100044B0093032300220348BD
:1025C000FEF701FD03B000BD840E01100F3D022097
:1025D000044B5B6A034A906A1900536A9942F9D125
:1025E0007047C04600400540084B5B6A01E0074B5E
:1025F0005B6A8B42FBD301E0044B5B6A8B4203D1E5
:10260000024B9B6A8342F7D37047C04600400540A7
:1026100070B504000D00FFF7DBFF02000B00200087
:102620002900801859418B4202D804D1824202D934
:1026300001204042C117002902DBFFF7D5FF70BD22
:10264000024B034A3F21034800F050FE9409011059
:10265000240F0110B009011070B504000D00EFF354
:10266000108672B61B4B1B68002BFBD0BFF35F8F2D
:10267000002D1CD02000FEF7B1FD174B83420BD07C
:1026800019002000FEF7C4FD01212000FEF796FD91
:102690000123A340114A1360A400114BE550BFF37E
:1026A0005F8F0C4B00221A6086F3108870BDA20069
:1026B0000B4B0021D1500122A2400A490B789343D1
:1026C0000B7005492000FEF7E7FE00212000FEF711
:1026D00075FDE4E7280100D0F924001038600540BA
:1026E000741D0020163D0220F0B5DE4600B584B012
:1026F0000400150001921E000293FFF769FF039585
:102700008E4202D84ED185424CD9EFF3108B72B66F
:10271000274B1B68002BFBD0BFF35F8F254A177830
:102720000125A540EBB23B431370234B5D63221D93
:1027300092000199D150A2002049029850501B6A82
:102740002B4212D11C4B1B6C2B4208D00020BFF334
:102750005F8F174B00221A608BF3108823E0184B11
:10276000184AC521184800F0C1FDFFF731FF8E421D
:1027700014D802D1039B834210D80E4B1B78BB4266
:102780000ED00D4B1D625D631F2004400123A3404A
:102790000E4A1360074B1F701E38D8E70020D6E79B
:1027A0000120D4E7012004B080BCBB46F0BDC04688
:1027B000280100D0163D02200040054030350020A1
:1027C000980E0110080F0110BC0E011080E200E00D
:1027D000EFF3108C72B60B4B1B68002BFBD0BFF3D2
:1027E0005F8F01238340084A136208490A789A439D
:1027F0000A70BFF35F8F034B00221A608CF31088BE
:102800007047C046280100D000400540163D022018
:10281000EFF3108C72B60B4B1B68002BFBD0BFF391
:102820005F8F01238340DAB20749087802430A70B8
:10283000BFF35F8F034A002111608CF31088034AB5
:1028400013607047280100D0163D02203C6005400F
:1028500010B500291ED0037B99421BD84B005B1892
:10286000033B0468A4466344002919D0002A1DD004
:10287000914221D0002A25D0047BA24222D80468AC
:1028800050008018033820188170197800291FD152
:102890001A7010BD104B114A6821114800F026FD36
:1028A000104B114A6F310E4800F020FD0F4B0E4ABD
:1028B00070210B4800F01AFD0D4B0B4A712108489E
:1028C00000F014FD044B054A6821054800F00EFD98
:1028D00041701A70DDE7C046440B0110341001103E
:1028E000600B0110B40B011020100110C00B01107F
:1028F000CC0B011070B506000D001400002914D097
:10290000002A14D0806873689847002806D02200F7
:1029100029003000FFF79CFF280007E02A00210073
:102920003000FFF795FF200000E0100070BD0800A8
:10293000FCE7000010B50023437301338373037B6E
:10294000C3730123027B9A4214D9002B0CD0027B63
:10295000934209D85A00D218033A01688C4662445F
:102960000133DBB25370EDE70B4B0C4A68210C4886
:1029700000F0BCFC002A09D0924207D8016853003D
:102980009A18033A8A180023537010BD024B034A69
:102990006821034800F0AAFC440B01103410011018
:1029A000600B011010B5017342608360FFF7C2FF36
:1029B00010BDF8B505000E0017001021012002F02F
:1029C000B7FA04000321280002F0B2FA20603B00AD
:1029D000320029002000FFF7E5FF2000F8BD10B508
:1029E0000400006802F0C4FA200002F0C1FA10BD31
:1029F00070B50400081E00D170BD002934D0237BBF
:102A0000994231D84B005B18033B226894466344DB
:102A10005A78002AF0D02DD0237B9A422AD853002E
:102A20009B18033B21688C4663445D7800215970F4
:102A3000002825D0237B984222D843001B18033B53
:102A400021688C4663440021597001002000FFF783
:102A500051FF060029002000FFF7CAFF02003100E5
:102A60002000FFF747FFC7E7084B094A68210948DC
:102A700000F03CFC054B064A6821064800F036FC95
:102A8000024B034A6821034800F030FC440B01105C
:102A900034100110600B011070B505000C00160019
:102AA00000292FD034D0037B994231D84B005B18DA
:102AB000033B0268944663445A78002A2ED19A78E0
:102AC000002A31D11978FFF793FF0300002E0AD0B6
:102AD000EA7B002A2ED1AA7B002A03D1EA7B002AB6
:102AE0003BD1AC73EC73002B3DD1002C4FD02B7B32
:102AF0009C424CD82B6861000C19033C1C19002324
:102B0000637070BD254B264A3821264800F0EEFB45
:102B1000254B264A6821264800F0E8FB254B204A31
:102B20003A21204800F0E2FB234B1D4A3B211D487F
:102B300000F0DCFB002A0AD0297B8A4207D851002A
:102B40008A18033A29688C4662445470C3E7164BCE
:102B5000164A6821164800F0C9FB184B104A42215A
:102B6000104800F0C3FB002B0BD02A7B934208D8FF
:102B700043001B18033B2A689446634400229A7062
:102B8000B3E7094B094A6821094800F0AFFB064B3F
:102B9000064A6821064800F0A9FBC0463C0F011018
:102BA0000C100110440F0110440B011034100110DF
:102BB000600B0110880F0110B00F0110900C011074
:102BC00070B504000A00457B2900FFF765FF6073BC
:102BD000280070BD70B50400002967D0437B8B428C
:102BE0000ED0002911D0037B99420ED84B005B1800
:102BF000033B0268D0188378002B0CD1002056E0EC
:102C00000121FFF7DDFF012051E0294B294A68210E
:102C1000294800F06BFB002B20D0227B93421DD86B
:102C20005A00D318033B2268D2182568EB5C8B420C
:102C30001AD0002B1BD0227B934218D85A00D318ED
:102C4000033B2268D21853788B4216D0002BF0D168
:102C50001A4B1B4A6B211B4800F048FB144B154ACA
:102C60006821154800F042FB4378137007E0104BD1
:102C7000104A6821104800F039FB43785370002354
:102C80008370437001222000FFF706FF0200617B82
:102C9000814205D02000FFF72DFE6073012006E081
:102CA000094B074A7121074800F020FB002070BD46
:102CB000440B011034100110600B01107808011052
:102CC000F40F0110440F0110D40F011070B5046B04
:102CD000E30701D4200070BD02003032C0239B0105
:102CE00013430A4A1A60456A826AAD01AD18AD0203
:102CF000062000F0BDF9064901F0CAFC01002800D9
:102D000001F0C6FC0021FFF783FCE3E701030000AC
:102D10004E0E000070B504000E001500FFF7D6FF40
:102D200022002C32E16A4E40354080235B01134380
:102D30001D60206370BD000070B505000C0006200A
:102D400000F096F9C000210001F0A2FCC60908D0ED
:102D50000E4B9E4216D87F2318400130340046089F
:102D600000E001246C62AE62002200212800FFF71F
:102D7000D1FF062000F07CF98000A101891901F043
:102D800087FC70BD0026024CECE7C046FEFF000049
:102D9000FFFF000010B505394901013AD200114387
:102DA000002B09D002220A43012B07D00021114336
:102DB0006E22FFF7AFFF10BD0022F4E70421F6E713
:102DC000002909D00A22064B9C46604443425841E0
:102DD0004000044BC252704780225200F3E7C046C5
:102DE0000080FCBFAC3B002070B505000C00062045
:102DF00000F03EF9061E27D0164B9D4226D08022B9
:102E0000D203154B1A60154B1A60154B9B681100C5
:102E10009943FAD100212800FFF7D2FF21002800B2
:102E2000FFF78AFF06000023012208212800FFF790
:102E3000B1FF2A002C3280239B01134310221A6019
:102E4000084B2B630323AB64300070BD8022120457
:102E5000D7E7C0460080034000E0004000F000409B
:102E600000C0004001030000F8B5DE4657464E465C
:102E70004546E0B505000F0092460A9A934250D3AA
:102E80001A0E91461E020A9A00233000494601F0AC
:102E90003DFC80466C006419A400304B9C466444A1
:102EA0006368834200D260602B1FDBB29B46012B1C
:102EB0003DD9C0239B012343802212011A60AB003D
:102EC000274A9958002907D0506901F0E1FB431CBB
:102ED0005800C0180338FDD253465A0123685A409F
:102EE000E0231A4080235B0123431A605A46012ADB
:102EF00028D980239B012343802212011A60434674
:102F00006360424600233000494601F0FFFBAD00FC
:102F1000134B58510120F0BCBB46B246A946A0460F
:102F2000F8BD104B104A3321104800F0DFF9012F93
:102F3000BFD1C0239B01234303221A60A368DB0790
:102F4000FCD5C9E72168794003220A401A60A268CB
:102F50000123BB401342FAD0CBE7C04600800040BB
:102F6000B81E002040100110A410011054100110D0
:102F700030B583B00C2000F011F9FDF7EBFF00280D
:102F80000DD0002304E099002D4A2E4888500133CB
:102F9000092BF8D92A4B2C4A5A6203B030BD2B4B6F
:102FA00000229A6700F06CF9294B01221A60274B26
:102FB0005B6C012BFBD1274B03221A60234B9B6BCD
:102FC000012BFBD1013300930433234A0121234811
:102FD00000F054F805230093214A0121214800F014
:102FE0004DF8214B0093002202210420FFF73CFF03
:102FF0001E4D00952B00002201210520FFF734FF14
:10300000104C00942300002200210720FFF72CFF22
:1030100000942300002200210820FFF725FF0A4B1F
:1030200000932300002200210920FFF71DFF0095D7
:103030002B00002200210620FFF716FFADE7C04657
:10304000B81E0020006CDC021BB7000000800040AE
:103050003CB0004030B00040002F68590080024072
:10306000008C864700C00240001BB7004059730720
:103070008000014BC0587047B81E0020F0B5C6460E
:1030800000B504000E0017001D00374801F000FBDA
:103090008046364BFA18364B9A4239D80100380030
:1030A00001F0F6FA0200103A98235B009A4235D8F4
:1030B0006B1E062B38D8069B013B062B34D83F09E4
:1030C000474537D32D04069B1A0315432368002B6D
:1030D00036DB284B9C4244D080225201264B1A609A
:1030E000264B1A60264B9B6811009943FAD1266043
:1030F000A060231DC02292011A432123136023687C
:10310000002BFCDAE5600823136080BCB846F0BDF4
:103110001C4B1D4A11211D4800F0E8F81C4B1A4AAF
:1031200019211A4800F0E2F81A4B174A1C211748D7
:1031300000F0DCF8184B144A2321144800F0D6F8AC
:1031400022683F231340B342C3D1A3681B051B0D64
:103150008342BED1E368EE22D2021340AB42B8D123
:10316000D3E780229201B9E7001BB70080E84BD378
:1031700080F8A93200C0024000E0004000F00040AA
:1031800000C00040B4100110E01101101411011032
:103190005C11011078110110C411011080239B00F3
:1031A0000343014AD362704700800540024B1A680E
:1031B000024B5A607047C046582C002000800540E2
:1031C00010B50200164B8020C0051860154B16483C
:1031D000186000290AD0154BE021C9041960002AA3
:1031E00009D1124B802212061A6010BD0C4BE0214F
:1031F000C9041960F3E753019B1A98008018000175
:103200000B4B186080235B04984202D3084B094A99
:103210001A60FFF7CBFF054B8022D2051A60E4E766
:1032200000B0054008200140FCFF010000A005405F
:10323000582C0020FFFFFF0010B5030010000C4ABF
:103240008024E4051460002B0DD001221343094AA9
:10325000094CD461094C5C401462516293620021B4
:10326000FFF7AEFF10BD034B0022DA61F7E7C0465F
:1032700000B0054000800540D3C007B02D3FF84F97
:10328000064BAA2212011A602F22DA60044B054A6B
:103290001A60024B5B68002BFBDA7047004002406B
:1032A0000060024000B0FA0000BEFDE703000A4AD9
:1032B0001268002A08D0084A1068C318074A9A42C0
:1032C00006D3054A13607047034A05491160F2E7C7
:1032D00001204042F7E7C0464C28002000000420AF
:1032E000183D022010B5FFF7DFFF000010B582B0D7
:1032F0000C001900002A0CD0084B002A0BD00192B8
:10330000009323000200064802F036F80120FFF780
:10331000CBFF044BF1E7034AF1E7C046EC11011083
:10332000FC110110A004011070B52B4B2B4A1A6040
:103330002B4B2C4A1A602C4B9A682A4B9343FAD198
:103340002A4C01E008CC9847294B9C42FAD3FFF75E
:103350000FFE234B274A1A60234B9B68DB43DB019C
:10336000FAD1254B40229A675A671A67DA66234CCE
:1033700009E0234B234A87212348FFF7B7FF2000AA
:10338000FEF730FA0834214B9C4209D22368002B07
:10339000F5D0012BEDD12000FEF732FA0C34F2E724
:1033A0001B4CA1681B4DC022280001F0FFFDA56049
:1033B000EFF30583002B00D000BEFDF74DFEFEF7B6
:1033C000CDF9FEF77DFD144C01E008CC9847134B76
:1033D0009C42FAD370BDC04600E00040BFCDFBFE6A
:1033E00000F00040FE7F3C0000C00040501700206D
:1033F00060170020FFFFFF0100F001404017002090
:103400002C120110B81201104C120110501700209C
:1034100000ED00E000000020601700206C17002085
:103420000FB400B583B0084801F076FF049B002B71
:1034300007D005A90191180001F07EFF034801F0B3
:103440006BFF0120FFF730FF9812011018220110C6
:1034500010B50148FFF7E4FFA81201109A4200D20C
:1034600088547047704710B5002802D00B6849682F
:10347000984710BD0100002007E083001B185B0087
:10348000501C08601078C01830380A681378303B38
:10349000DBB2092BF1D97047F0B5DE4657464E46F0
:1034A0004546E0B583B093461F000C9B9A460D9CA1
:1034B0000E9B99460F9B9B0703D0B8460F00060052
:1034C00022E00192A34688464E46B9460700B44220
:1034D00007D2551C4B4641462020B84701342A00EC
:1034E000F5E73D004F465C46019B9B46B14646468C
:1034F000B84637002E0007E0013C551C5346185DC6
:1035000043463900B0472A00002CF5D135003E0073
:1035100047460F9B9B0707D4100003B0F0BCBB4687
:10352000B246A946A046F0BDB0464E46B9462F0069
:103530005D46531BB342EFD2541C4B4641462020FC
:10354000B8472200F5E7F0B5CE46474680B585B0CE
:10355000944698460C9D0D9C0EAB1B789946109A8C
:10356000119B129EB7071CD4002B0CD0F7070AD56D
:103570004F46002F02D10C37374204D0013B02E006
:1035800030272F550134944201D21F2CF8D9F70768
:1035900007D59C4205D21F2C03D830272F55013464
:1035A000F5E7F70615D5770505D4002C03D094422E
:1035B00024D09C4222D00F9A102A2BD00F9A102A86
:1035C00030D00F9A022A35D01F2C02D830222A552B
:1035D00001341F2C05D84A46002A31D02D222A5505
:1035E0000134039602930194009543466246FFF727
:1035F00053FF05B0C0BCB946B046F0BD621E012CF9
:1036000006D00F9F102F01D01400D4E7023CD2E760
:103610001400D0E7B206D1D41F2CCFD878222A5577
:103620000134D1E7B206CCD51F2CCAD858222A556E
:103630000134C9E71F2CC7D860322A550134C3E7CB
:10364000720703D52B222A550134CAE73207C8D5A1
:1036500020222A550134C4E7F0B5DE4657464E46CF
:103660004546E0B593B081468A46089209931CAB63
:1036700010CB1B789B461E9D219B9846002C03D1A6
:10368000102342469A4390468023DB0046461E4064
:1036900042461A4212D0002C22D000260EE03033CF
:1036A000D9B2771C0AAB99552900200000F0F0FF31
:1036B000AC4216D31F2F14D83E000400290020006E
:1036C00000F0E6FFCBB2092BE9D94246920605D5B8
:1036D0004121C918C9B20A39C9B2E2E76121F8E744
:1036E000270043460693209B05931F9B0493039555
:1036F0005B46029301970AAB0093099B089A5146D7
:103700004846FFF720FF13B0F0BCBB46B246A946BF
:10371000A046F0BDF0B5DE4657464E464546E0B5FC
:1037200095B0089009910A920B931E9E1F9C20ABA6
:103730001B789B46229B9946239D269B9A463300E5
:10374000234303D1103352469A4392468023DB0031
:1037500057461F4052461A4219D0330023432DD0FA
:10376000002714E03033DAB27B1C98460CABDA55F4
:103770004A462B003000210000F0C8FFA5421FD8A8
:1037800019D043461F2B1BD8474606000C004A465B
:103790002B003000210000F0B9FFD3B2092BE1D992
:1037A0005246920605D54122D218D2B20A3AD2B276
:1037B000DAE76122F8E7B145E3D901E00023984652
:1037C00053460693259B0593249B04934B460393F2
:1037D0005B460293434601930CAB00930B9B0A9A02
:1037E00009990898FFF7AFFE15B0F0BCBB46B2468A
:1037F000A946A046F0BD0000F0B5DE4657464E464D
:103800004546E0B591B083468A460C9298461A9C8C
:1038100008941B9D099522002B002000290001F02F
:10382000F0F9002800D0E5E001225242D74B2000F9
:10383000290001F0E1F9002800D0DBE0012252422A
:10384000D34B2000290001F0C1F9002800D0D1E0BD
:1038500000220023089E3000099D290001F0B6F9DE
:10386000002800D0DDE00898099906900791802390
:10387000DB001E9A1A400D921E9A1A4201D10623AD
:103880001C930698079904000D000A0006000243E5
:1038900000D1D1E0080D4005400DBE4CA446604467
:1038A0000A03120BBC4B13431F0001F0BDF9BB4AC6
:1038B000BB4B01F04CF9BB4ABB4B01F029F90400AA
:1038C0000D000022B94B3000390001F01CF9B84A54
:1038D000B84B01F03CF902000B002000290001F078
:1038E00017F901F0B9F9814601F09EF904000D00C5
:1038F000B14AB24B01F02BF90022B14B01F008F9AB
:1039000001F0AAF90600AF4AAF4B2000290001F0F0
:103910001EF904000D00300001F086F9AB4AAC4BF3
:1039200001F015F902000B002000290001F0EBF86E
:1039300004000D0002000B0001F009F90A900B9140
:10394000A44BF31800261F0522002B00200029009D
:1039500001F0DEF80E900F9122002B000020802154
:10396000C90501F0D0F804000D0000229A4B0A9816
:103970000B9901F0D2F80022984B01F0C9F802002F
:103980000B000A980B9901F0C8F80022944B01F043
:10399000BFF802000B000A980B9901F0BEF8020074
:1039A0000B002000290001F0B3F802000B000E9874
:1039B0000F9901F0B2F80022774B01F0A9F832001C
:1039C0003B0001F0C4F806000F0004000D00069A49
:1039D000079B01F011F9002830D001235B429C467F
:1039E000E14400227D4B3000390001F096F80400DC
:1039F0000D0023E01E9B04931D9B03931C9B0293CD
:103A0000089A099B0092019343460C9A51465846E6
:103A100000F0FCF811B0F0BCBB46B246A946A04687
:103A2000F0BD0023002406930794069680231B060E
:103A30009C46654407951AE7002399464B46633335
:103A4000C62B1ED804261E9B1B0526D52B00234300
:103A50000FD0644A644B0698079901F0C5F8002816
:103A600079D00022614B0698079901F0AFF8002841
:103A700071D01C9B4B4506DD4A46981A431E1C9389
:103A800003E00526DFE700231C938023DB001E9A5A
:103A90001A431E920026002399461D9B9E4264D223
:103AA0009F1B02231E9A1A400A921E9A134202D0AA
:103AB000002E00D000274B46002B07D022002B0001
:103AC0000698079901F029F8069007910022002333
:103AD0000898099901F07AF8002848D1444B1E9AB9
:103AE0001340049303971C9B0293069B079C00932F
:103AF000019443460C9A5146584600F087F8002E30
:103B000000D187E71E9B9B063DD54525441C4346B7
:103B1000020051462800D8474B46DA179B185340FD
:103B200005220592013E0496002203920A32029277
:103B30004A46D00F01900093434622005146584612
:103B4000FFF78AFD0A9B002B00D163E702005F4666
:103B50000C9E1D9D54E01C9B002B9ED00D9B002BAA
:103B60009BD01C9B013B1C9397E7002799E7069C81
:103B7000079D2200290080200006844661440B0036
:103B800006920793AAE76525C0E7C046FFFFEF7FCF
:103B9000FFFFEFFF01FCFFFF0000F03FFB799F50AC
:103BA0001344D33FB3C8608B288AC63F0000F83F58
:103BB00061436F63A787D23F71A379094F930A408E
:103BC0000000E03F1655B5BBB16B0240EF39FAFE7D
:103BD000422EE63FFF03000000002C40000024407E
:103BE000000018402D431CEBE2361A3F80842E4122
:103BF000FFF7FFFF541C434651462020B8472200E0
:103C0000931BAB42F6D3100004E7C046F0B5DE4686
:103C100057464E464546E0B595B006900791934607
:103C20009946209F1E9A1F9B1000190000F0E9FF83
:103C3000002831D101225242BF4B1E981F9900F03B
:103C4000C5FF002837D101225242BC4B1E981F9954
:103C500000F0D2FF00283DD10022B94B1E981F99D9
:103C600000F0CAFF002850D10022B64B1E981F99C1
:103C700000F0ACFF002848D1002200231E981F99B5
:103C800000F0A4FF002850D100239846229B5B053A
:103C900000D4B6E0002458E0229B0393219B0293BA
:103CA00003230193A84B00934B465A460799069865
:103CB000FFF7F2FB0EE1229B0393219B0293042367
:103CC0000193A24B00934B465A4607990698FFF77B
:103CD000E3FBFFE00423229A1A4022990B4210D002
:103CE0009B4B002A0FD00422229903912199029123
:103CF000019200934B465A4607990698FFF7CCFB72
:103D0000E8E0944BEDE70322EEE7229B0493219B2E
:103D1000039302971E9B1F9C009301944B465A46A7
:103D200007990698FFF768FDD4E01E9A1F9B0020B4
:103D3000002100F0E8FE1E901F9101239846A5E7A0
:103D40000CAB30221A55013F01341F2C01D8092F2A
:103D5000F6D81E981F9900F07FFF050000F064FF61
:103D600002000B001E981F9900F0CDFEFA007A4B5E
:103D70009B181A685B680A920B9300F0E8FE0890A3
:103D8000099100F08DFF060000F04AFF02000B00D1
:103D90000898099900F0B7FE0890099100226F4B2E
:103DA00000F02AFF00282ED00136300000F038FF46
:103DB00002000B000A980B9900F00EFF002801D0BA
:103DC00001350026002F2CD1280000F02DFF020025
:103DD0000B001E981F9900F096FE06000F000022AF
:103DE0005E4B00F0F3FE002846D100225B4B300012
:103DF000390000F001FF00283ED1EB073CD501352A
:103E00003AE0062746E70022544B0898099900F04B
:103E1000DDFE0028D6D1002E01D0F307D2D5013621
:103E2000D0E7AA461F2C11D8013F0A21300000F02C
:103E30002FFC651C30310CAB19550A21300000F005
:103E400027FC092E0ED906002C00EBE755461F2C47
:103E50000CD87B1E002F09D00CAA302111551F0051
:103E60000134F4E72B0055461C00F0E71F2C03D863
:103E70000CAB2E221A5501341F2C10D80A21280011
:103E800000F0DEFB661C30310CAB19550A2128000E
:103E900000F0D6FB051E01D03400EDE7340003230B
:103EA000229A1340012B1CD01F2C06D84346002B0E
:103EB00032D00CAB2D221A550134229B0393219B47
:103EC000029301940CAB00934B465A46079906980F
:103ED000FFF7E2FA15B0F0BCBB46B246A946A046D1
:103EE000F0BD219B002B13D04346002B02D10C3395
:103EF00013420FD0219B013B2193190003E00CAB2F
:103F000030221A5501348C42CED21F2CF7D9CBE780
:103F10002199F8E72199F6E7229B5B0704D50CABC2
:103F20002B221A550134C8E7229B1B07C5D50CABC1
:103F300020221A550134C0E7FFFFEFFFFFFFEF7F9C
:103F400065CDCD4165CDCDC1D4120110D81201107F
:103F5000CC120110C8120110C01401100000E03F83
:103F6000F0B5DE4657464E464546E0B593B082462C
:103F70008B4690461193002900D1EBE2002755466D
:103F8000119B1878002800D1E7E2252809D07C1C75
:103F900043463A005946A847119B01331193270025
:103FA000EEE7013311930024119A11780B00203BA6
:103FB000D8B2102803D88300D048C3589F460B00BE
:103FC000303BDBB2092B2CD92A292FD000230A93AE
:103FD000119B1A782E2A39D000239A46119A137809
:103FE000683BD9B2122976D88B00C549CB589F4679
:103FF00001231C4301321192D6E702231C430132F4
:104000001192D1E704231C4301321192CCE708231B
:104010001C4301321192C7E710231C430132119255
:10402000C2E711A8FFF726FA0A90D1E71C9B1A1DD8
:104030001C921868002804DB0A90119B013311932D
:10404000C6E702231C4343420A93F6E78022D200CC
:1040500014435A1C11925A781300303BDBB2092BDF
:1040600004D92A2A07D000239A46B7E711A8FFF7F8
:1040700001FA8246B2E71C9B1A1D1C9218680028A0
:1040800004DB8246119B01331193A7E70020F8E778
:1040900080235B002343511C119152786C2A01D07C
:1040A0001C0018E0C0239B001C430131119112E059
:1040B00080232343511C11915278682A01D01C009F
:1040C00009E0C0231C430131119104E080235B000F
:1040D0001C4301321192119B18780300253BDAB280
:1040E000532A00D92CE29300864AD3589F46802356
:1040F0009B001C4301321192EDE780235B001C43BF
:1041000001321192E7E7782809D0582838D06F2873
:1041100038D0622838D010239C430A2600E01026AD
:10412000582833D0692803D0642801D00C22944346
:10413000630501D50122944369282AD0642828D038
:10414000A30500D59FE0E30500D5B8E0630600D4E1
:10415000CAE01C9A111D1C911168FF220A400594A7
:104160000A9B049353460393029600230193009203
:1041700043463A0059462800FFF76EFA070027E049
:104180001026CDE70826CBE70226C9E720221443F4
:10419000C8E7A30520D4E30550D4630666D51C9A6E
:1041A000111D1C911168FF220A40D317D1185940E4
:1041B00005940A9B0493534603930296D20F0192EF
:1041C000009143463A0059462800FFF745FA070098
:1041D000119B01331193D3E61C9BDA1D07218A43FF
:1041E000110008311C91116853689C46DB170C9331
:1041F0000D930C9A0D9B100048400E906246534060
:104200000F930E980F990C9A0D9B801A99410E905E
:104210000F9108940A9B0793534606930496002334
:1042200005936346DA0F02920090019143463A00EB
:1042300059462800FFF76EFA0700C9E71C9A111DBE
:104240001C911268D317D118594005940A9B049306
:10425000534603930296D20F0192009143463A00CF
:1042600059462800FFF7F8F90700B1E7230605D5FE
:104270001C9A111D1C910023D25E96E71C9A111DF9
:104280001C91126891E71C9BDA1D07218A431100DB
:1042900008311C9108940A9B079353460693049691
:1042A00000230593029313685468009301944346D6
:1042B0003A0059462800FFF72DFA070088E71C9AB4
:1042C000111D1C9105940A9B049353460393029677
:1042D000002301931368009343463A00594628008F
:1042E000FFF7BAF9070073E723060DD51C9A111DD5
:1042F0001C9112681204120C31E7C046E012011042
:1043000024130110701301101C9A111D1C911268C6
:1043100025E746281AD01C9B0733072293431A002F
:1043200008321C9204940A9A0392524602925C68E4
:104330001B680093019443463A0059462800FFF752
:1043400065FC0700119B0133119319E620231C43E0
:10435000E1E7672801D0472802D180231B011C43D5
:10436000452801D0472801D120231C431C9B07333B
:10437000072293431A0008321C9204940A9A03926B
:10438000524602925C681B680093019443463A00CF
:1043900059462800FFF730FA0700119B01331193AB
:1043A000EEE502231A002240924623421FD0012448
:1043B0001C9B1A1D1C927A1C9146187843463A00A1
:1043C0005946A8475346002B16D1119B0133119330
:1043D0004F46D5E5561C434659462020B847230092
:1043E00032005C1C9D42F5D83D001700E0E7012338
:1043F0003A002F000A9DF4E74A46A9460A9D06E0C6
:10440000571C434659462020C84734003A00661CD2
:10441000A542F5D84D469146D7E71C9B1A1D1C9224
:104420001B6899465346002B00D1013B4E4601E0E4
:10443000013613003278002A02D05A1E002BF7D121
:104440004B46F21A10928023DB0026001E401C42CD
:1044500003D0524501D95346109302231A0022403B
:104460000B92234205D03A0037004C46A9465546E8
:1044700020E03A00109B5F46B3462E0006E0551C34
:10448000434639002020B04723002A005C1C0A99CB
:104490009942F4D835005E46BB46109437004C462E
:1044A000A946554606E01D000134561C43465946B0
:1044B000C84732002078002804D0002FF4D06B1EAB
:1044C000002DF0D117004D460B9B002B03D1119B03
:1044D0000133119354E50A9F109B06E0561C434696
:1044E00059462020A847230032005C1C9F42F5D883
:1044F0001700ECE721231C431C9B1A1D1C921B6810
:1045000000930594082304935346039310230293C6
:104510000023019343463A0059462800FFF79CF8D0
:104520000700119B013311932AE57C1C43463A0096
:1045300059462520A847119B0133119327001FE5F9
:104540007C1C43463A005946A847119B01331193FE
:10455000270015E50A4B9A4610E5AA46474502D3BF
:1045600043465A1E00E03A00434659460020D047D1
:10457000380013B0F0BCBB46B246A946A046F0BD19
:10458000653400100EB410B585B0010007AC08CC3E
:1045900003940122009452420348FFF7E1FC05B066
:1045A00010BC08BC03B018475D34001000B585B0DE
:1045B000029003910121009313004A4202A902488C
:1045C000FFF7CEFC05B000BD6734001001480421A0
:1045D000014B1847700E002009460010014B9B68E4
:1045E00018470000700E002010B5010018231B882A
:1045F00014221088984710BD10B5010018231B889D
:1046000016221088984710BDF0B5C64600B50700C1
:104610000E0000250123984600E00135B5420AD27C
:10462000AC003C192068FFF7DFFF20600028F4D1C0
:1046300000239846F1E7404680BCB846F0BD000034
:10464000124A936F9B0815D29066D166002905D057
:10465000FFE7FFE7FFE7516F106F704704B5802158
:104660000906C2175140002800D0C8430BF0F4FDE2
:10467000002104BDF0B5146E556E576F166FFFF72D
:10468000E3FF1466556657671667F0BD000000D05B
:10469000114A936F9B0813D210665166002905D00A
:1046A000FFE7FFE7FFE7516F106F704704B5002881
:1046B00001D00020C0430BF0CFFD002104BDC04657
:1046C000F0B5146E556E576F166FFFF7E5FF146661
:1046D000556657671667F0BD000000D094464A4AF9
:1046E000926F9208624601D228E0C046F0B5464E6D
:1046F000346E756E776F366F00F020F89446424A3C
:1047000014665566576716676246F0BD94463E4A82
:10471000926F9208624601D254E0C046F0B53A4E1C
:10472000346E756E776F366F00F04CF89446364AEB
:1047300014665566576716676246F0BD002B24DB8A
:1047400011D000293EDA00B5C943404200D1013101
:1047500000F038F8C943404200D10131DB435242F6
:1047600000D1013300BD002AEBD1002801D100297E
:1047700005D00020C90FC90701D1C043410800B5C9
:104780000BF05AFD0022002300BD00B500290ADB12
:10479000DB43524200D1013300F014F8C9434042D8
:1047A00000D1013100BDC943404200D10131DB439A
:1047B000524200D1013300F005F8DB43524200D1F0
:1047C000013300BD002923D1002B18D1002A0CD0C1
:1047D000BC460D4F38667A6600210023FFE7FFE7ED
:1047E000FFE77A6F386F67467047002801D00748A7
:1047F000010000B50BF020FD0022002300BD0200E7
:104800000B00002000217047000000D0FFFFFFFFD9
:10481000002B00D0BFE0130C28D1002AE7D080B4D1
:10482000114F39667A66FFE7FFE730B4040C7B6FFF
:10483000396F1B0423433B667A66FFE7FFE7FFE718
:10484000C04684B27B6F3D6F1B0423433B667A6690
:10485000FFE7FFE7C04600232C042D0C7A6F386F6A
:1048600000196941B0BC7047000000D0F0B5944613
:104870000025140E01D112020835140F01D11201C6
:104880000435940F01D192000235D40F01D15200AA
:104890000135D40B0134254F7C66254C3C660E0C4B
:1048A00093B2FFE7FFE7FFE73C6F6643360C770301
:1048B000BE467343DF0B5B04C01AB941130C73434C
:1048C000DB18C91ACE086643360CB64493B273435C
:1048D0001F0F1B01C01AB941130C73431F0B1B059B
:1048E000C01AB941860D8F023E436643360C092D2E
:1048F00024DB520A7243801A7703460A6643360C59
:1049000016235B1BDE40DF40BF1964466643821BF3
:104910007046043506330100D940A840C01900D3C1
:104920000131A24206D20023F0BD0000000000D0F9
:10493000FFFFFFFF121B0130F3D3F1E709277F1BB5
:10494000FE406446A2B27243801A00D20139220CA2
:104950007243130C1204821A99410B0070460435FD
:1049600013370100F940A840801900D30131002B12
:1049700002D1A2420AD2F0BD013000D30131121B94
:10498000FAD2013BF8D1A24200D2F0BD013000D3EF
:104990000131121BF7E7F0B51C0C00D080E00CB41D
:1049A00000251C0A04D11B02160E334312020835DF
:1049B0001C0B04D11B01160F3343120104359C0B51
:1049C00004D19B00960F334392000235DC0B02D1D9
:1049D00092185B4101351C00971864410134464F21
:1049E0007C66464C3C660E0CFFE7FFE7FFE7C046DF
:1049F0003C6F6643360C7703BE4697B27743C01BC5
:104A000000D20139C01B00D201399FB27743C91BC4
:104A1000C91B170C77437E04FF0B801BB941CE08DE
:104A20006643360C0C2D33DBB644120B1F053A439C
:104A30001B0B97B27743C01B00D201399FB277435B
:104A4000C91B170C77433E043F0C801BB941860DF0
:104A50008F023E43664329277F1BFE400C3D77466D
:104A6000AF40BF1930BCA2B2ABB272437343801ADD
:104A70009941220C7243130C1204801A99410200CE
:104A80000B000137001BA941F9D2781E0021F0BDAF
:104A90000C277F1BFE4077467F0BAF40FF19E0E7F6
:104AA00000245D1C07D0144F7D663966FFE7FFE7E1
:104AB000FFE7FFE73C6F95B29EB265436643401B3C
:104AC000B141150C1E0C6543664336042F0C3E4362
:104AD0002D04401BB141994204D202000B0020007A
:104AE0000021F0BD01D19042F7D3801A99410134E1
:104AF0009942F2D3F6E70000000000D0FFFFFFFF6D
:104B000048404140484018B4134B5B68019308BDCE
:104B100018B4114B1B68019308BD94460F4A926F5D
:104B2000920805D2624618B40B4BDB68019308BDAE
:104B30000A4AF0B5146E556E576F166F6246FFF74E
:104B4000F2FF064A1466556657671667F0BD18B43B
:104B5000014B9B68019308BD20330020000000D06A
:104B6000FFB550404240504059404B40594000E052
:104B7000FFB5154F4C00640D03D0BC4204D10C03AB
:104B800014D80020090D09055C00640D03D0BC4257
:104B900004D11C030AD800221B0D1B0501264B4023
:104BA00009D44B4003D58B4200D18242FFBD9942CC
:104BB000FCD19042FFBD0B43DB1803431343F5D0F8
:104BC000C9434918FFBD0000FF07000000B5FFF70B
:104BD000CFFF804100BDC04600B5FFF7C9FF01D936
:104BE000002000BD012000BD00B5FFF7B9FF01D9CD
:104BF000002000BD012000BD00B5FFF7B1FF8041DE
:104C000000BD012040054A00121804D85A001218AD
:104C100001D8002070470120704700207047000035
:104C20000021002805D17047C1174840401AFAD02A
:104C3000C90713B5064B1B6898470CBC441CA2401F
:104C40001005120B0349091B09051943114310BD37
:104C5000203400201F04000010B54C00620D80239A
:104C6000D218DB00D21A5B057E2A10DD9E3A13DAD9
:104C7000CC170903490819435242D140640001345A
:104C80001532202A05DAD0400843604310BD0020C9
:104C900010BD0846604310BDC80FC018013810BDD4
:104CA00018B4024B5B6A019308BD0000203300205A
:104CB00010B50148FEF7B4FB1015011070B51323B1
:104CC0001C78012C14D0012C14DC022C02DC1F4AAD
:104CD0001F4B9A641F48FFF787FC1F4B186070BD7D
:104CE00099001E481A4A885001331F2BF8D9EAE769
:104CF0000023FAE71A48FFF77FFC05001948FFF781
:104D00007BFC023803789B007F2B19DD8022290071
:104D10000F4800F04BF9022CD7D1134B1A88B5235A
:104D20001B029A4209D1114B1A88114B9A4204D1A5
:104D3000104B1A88104B9A42C7D00020FEF770FB28
:104D40000E4B0F4A32210F48FEF7D0FA894D001062
:104D5000203300204C33000020340020B14C0010E0
:104D6000534400005346000054380000D838000077
:104D7000494600009C3800005946000028150110E3
:104D8000D01501107C15011007B56046002800D130
:104D900000BE01880A0A0230DF2AFAD1C9B28208AD
:104DA00004D3028840880004104300E00068024AEF
:104DB0005050039007BD000020330020514343436F
:104DC000C9188C46110C83B24B4310B4040C6143D8
:104DD00092B280B2504362431C041B0C001910BCF9
:104DE00059411304120CC0185141614470474100ED
:104DF0000A0E80231B067E2A0BDD9E3A0BDAC117B2
:104E00004002400818435242D04049000131484313
:104E1000704700207047C00FC01801387047C0426B
:104E20000CD300B540004008002100F00DF8002828
:104E300001D4404200BD8020000600BD014BDB696B
:104E40001847000024340020014B5B6A184700001B
:104E500024340020014BDB6F18470000243400206D
:104E600010B50148FEF7DCFAA004011070B5132359
:104E70001E781848FFF7C0FB0500012E11D0012E47
:104E800009DDAB1E1B789B007F2B1DDD80222900D6
:104E9000114800F08BF81148FFF7A6FB104B186083
:104EA00070BD542201000C4800F080F8002300E09F
:104EB00001331F2BE3D89A00074C1259002AF7D16F
:104EC0009A0008481051F3E7074B084A4221084866
:104ED000FEF70CFA53460000243400204C33000047
:104EE00020340020614E0010E415011068160110F6
:104EF0001816011070B504000A4E30000BF00CFAC1
:104F0000200009F097FC050030000BF08DF9002D12
:104F100005D02C19044B9C4201D8280070BD0348D1
:104F2000FEF77EFA40170020000004207C160110D6
:104F300070B505000C000B4E30000BF0EDF92100B0
:104F4000280009F0BFFB050030000BF06DF9002DC3
:104F500005D02C19044B9C4201D8280070BD034891
:104F6000FEF75EFA40170020000004207C160110B6
:104F700070B50400054D28000BF0CEF9200009F0B3
:104F800063FC28000BF050F970BDC04640170020AC
:104F900001480421014B1847800E002009460010EB
:104FA000014B1B6818470000800E0020014B5B6816
:104FB00018470000800E002010B503000800110003
:104FC0001B68984710BD0000F8B507000D001600DB
:104FD000437D002B02D0002400200CE00368110068
:104FE000280098472DE03B7D10E0022115483B68E2
:104FF0009847601C0134B44214DA002CF3DD2B19FD
:10500000013B1B780D3B5A425341DBB22A5D0A2A11
:10501000F0D1002BEED1A042E7DA211A28183B6824
:105020009847E2E7B04203DA311A28183B689847FC
:10503000002E06DDAD19013D2B780D3B5A42534140
:105040003B75F8BD7017011070B505000368002BA3
:1050500016D00C4B1C6805E0290004C92000FFF79E
:10506000B3FF2469002C09D02368002BF9D0064B2C
:105070001B68002BF0D0A342F3D1EDE700232B6097
:1050800070BDC046402800204828002070B50500AB
:105090000C000B68802B05D021684B1C2360641822
:1050A000257170BD0800FFF7CFFFF5E7F0B583B0BD
:1050B00007000E000092019328E0A368002B04D0A3
:1050C000310038009847002827DC2469002C06D0DE
:1050D000134B1D68002DF0D0A542F6D1EDE70099E5
:1050E000019A104B5B6A9A4209D80E48806A88423E
:1050F0000FD29A4201D0012302E0002300E00023F6
:10510000002B08D101200021FDF782FA064B1C6814
:10511000DCE70123F4E70120404203B0F0BDC046C4
:1051200048280020004005404028002010B5FDF729
:105130004FFA02000B1E0BDB0D48002112184B41E9
:10514000002B0BDB002B0DDB0A480BF0B5F810BD74
:10515000094B0A4A3F210A48FEF7C8F80122524289
:10516000084BEFE7044B054A3F210548FEF7BEF820
:1051700040420F00481700209409011058170110F1
:10518000B0090110FFFFFF7F10B502480BF04CF88B
:1051900010BDC04648170020F0B5CE46474680B542
:1051A00083B006000D0090461C00FFF7BFFF81464C
:1051B0006B1C05D0002C08D0194F1A4B1C6807E057
:1051C00030000AF03FF80500F4E7174FF5E72469CF
:1051D000002C17D02368002BF9D0144B1B68002B30
:1051E00001D0A342F3D12A0031002000B847434642
:1051F000002BECD06B46D91D0A230B700122200036
:10520000B847E4E74B46002B07D16B1E9D41E8B23F
:1052100003B0C0BCB946B046F0BDFFF7B5FFF4E738
:10522000B94F001040280020C94F00104828002026
:1052300010B582B004006B46D81D04700023002214
:105240000121FFF7A9FF200002B010BD10B582B008
:1052500004006B46D81D0470012300220121FFF7D2
:105260009BFF200002B010BD10B503000800110024
:10527000002B05D1044B1A685B68FFF717FF10BDC0
:1052800001204042FBE7C046580E011010B5030054
:1052900008001400013B012B06D800230022210046
:1052A000FFF77AFF200010BD01204042FBE70120FC
:1052B0004042704701204042704701204042704701
:1052C0000300002002229A4240417047094A01E04F
:1052D00010331A001368002B08D08342F8D100293C
:1052E00007D1036913600023036102E0002900D0A5
:1052F000106070474028002010B5064B1C6801E084
:1053000098472469002C03D06368002BF8D1F8E794
:1053100010BDC0464028002070B5050009F092FF7E
:1053200004000023012201002800FFF735FFFFF7EA
:10533000E3FF200070BD000070B5A2B004000E00B5
:10534000FFF7F4FE0500002301933300220001A9BA
:105350000848FFF72BF9040001A8FFF775FEFFF7D7
:10536000CBFF002D02D1200022B070BDFFF70CFF53
:10537000F9E7C0468D5000100FB400B583B004A902
:1053800001C90191FFF7D8FF03B008BC04B018476A
:1053900030B583B004000025FDF71AF902000B1E9A
:1053A00010DB12196B41002B12DB002B14DB0121E7
:1053B00001A8FFF77BFE002802DB13D001AB1878B1
:1053C00003B030BD0B4B0C4A3F210C48FDF78EFF5C
:1053D000012252420A4BE8E7064B074A3F210748A1
:1053E000FDF784FF9E21074B074A49000748FDF758
:1053F0007DFFC0469409011058170110B009011033
:10540000FFFFFF7F140D011044170110FC1601105F
:1054100070470000014B00221A707047123D0220B5
:105420004B79FF2B0CD18B79002B0BD1CB79012B36
:105430000AD1082A0AD98A78054B1A70092000E097
:10544000002070470020FCE70020FAE70020F8E782
:10545000123D02200120704770B504000D00034882
:10546000FFF7C2F8030029002000984755420000CA
:1054700010B5012926D1117953791B020B4312492A
:1054800009788B4201D000201DE05378012B03D016
:10549000022B10D0002016E09178D3781B0219431C
:1054A000DB0506D54B0A012098407F231940FFF702
:1054B000D3FF0020F9E7642200210020FDF7BCFEA5
:1054C000012000E0012010BD123D022001230370E5
:1054D000004870477417011010B50B784878000227
:1054E00018438A7812041043CB781B060343962294
:1054F000D200934200D010BD00210800FFF7ACFF9E
:10550000024B1860024B19607047C046AC1E002069
:10551000B01E002010B5024B1878FBF757FE10BDE7
:10552000143D022070B5134B1B68002B1DD0114B8E
:105530001968EFF3108372B60A68002AFCD0BFF333
:105540005F8F0C494B6000220B4802700968BFF363
:105550005F8F0A6083F3108800240025074B1878BA
:10556000FBF734FE2000290070BDFA24A4000025BA
:10557000F4E7C046602C0020153D0220143D0220B7
:1055800010B584B000212D480AF07EFE00283AD1E3
:105590002B4B1B68002B3ED0294B1968EFF3108270
:1055A00072B60B68002BFCD0BFF35F8F24494A60B2
:1055B0002448037801246340DBB2012404700968A5
:1055C000BFF35F8F0020086082F31088002B22D089
:1055D000FCF796FC0400FCF7FBFF02000B1E1CDB33
:1055E000FA208000002112184B41002B1BDB002BFE
:1055F0001DDB01210291002101911349009120003E
:10560000FCF7F2FC07E001200021404201F0F8F82D
:105610000A480AF009FE04B010BD0C4B0C4A3F21A9
:105620000C48FDF763FE012252420B4BDFE7074BAC
:10563000074A3F210748FDF759FEC046283500209C
:10564000602C0020153D0220255500109409011002
:105650000C180110B0090110FFFFFF7F10B5054BBA
:105660001868002804D0044B1968002200F0EEFDF1
:1056700010BDC046AC1E0020B01E002010B584B086
:10568000D0231B061C68FCF73BFCFCF72FFEA04256
:105690002AD1324B1B7801F09BFD3148FCF7A2F870
:1056A0000120FCF773F8C0B22E4C20702E49FBF796
:1056B000AFFD20780121FBF781FD0520FBF796FD6A
:1056C000041E17D0002229490520FBF7CBFDFBF76C
:1056D000D3FC01002648FCF7A3F801212548FFF779
:1056E000F5FD200004B010BD234B244AB22124480C
:1056F000FDF7FCFDFCF704FC0400FCF769FF020069
:105700000B1E1BDBFA208000002112184B41002BDE
:105710001ADB002B1CDB01210291002101911949A8
:1057200000912000FCF760FCC443E40F0822002134
:105730000F48FFF735FC002CD3D0CEE7124B134AAD
:105740003F211348FDF7D2FD01225242114BE0E701
:105750000D4B0E4A3F210E48FDF7C8FD74B50410ED
:1057600028350020143D02208155001015550010E9
:10577000602C0020900E00203C080110FC17011046
:105780008C17011025550010940901100C180110F8
:10579000B0090110FFFFFF7F10B5002001F038FABB
:1057A00010BD000070B505000C00FFF7F5FF0028E4
:1057B00045D0002001F04EFA002843D0FCF708FF46
:1057C00002000B1E21DB2248002112184B41002B46
:1057D00021DB002B23DB1F480AF06EFD002834D0AC
:1057E000FFF7DAFF002804D0002001F033FA002888
:1057F0001BD101200021404201F002F80324644241
:1058000014480AF011FD200070BD134B134A3F21CC
:105810001348FDF76BFD01225242124BD9E70E4BA4
:105820000E4A3F210E48FDF761FD220029000020AD
:1058300001F01CFA041EE3D103246442E0E70324D0
:105840006442E0E703246442DDE703246442DAE7CC
:1058500040420F0028350020940901100C18011057
:10586000B0090110FFFFFF7FF0B5C64600B58046C6
:105870000C00FCF7ADFE02000B1E0FDB37480021C9
:1058800012184B41002B0FDB002B11DB34480AF0C0
:1058900013FD002812D180BCB846F0BD314B324A0E
:1058A0003F213248FDF722FD01225242304BEBE707
:1058B0002C4B2D4A3F212D48FDF718FDFFF76CFFBB
:1058C000002849D12B4B0020002118605960244842
:1058D0000AF0AAFCDFE701200021404200F090FF1F
:1058E000002001F0D7F9FFF757FF0028EFD0002084
:1058F00001F048FA002820D0A542E8DA661B002013
:1059000001F040FA0200864200DC3200002AE2D0B8
:1059100043465919002001F019FA06000120002120
:10592000404200F06DFF002001F0B4F9AD19FCF722
:105930004FFE104B18605960DEE7FCF749FE0D4B37
:105940001E685F680C4A002392197B419942BED8B9
:10595000D2D19042D0D9BAE70025CDE740420F001E
:1059600028350020940901100C180110B00901100D
:10597000FFFFFF7FC018002020A1070000487047EC
:10598000A4180110004870475018011010B5040009
:10599000154B1B78002B0ED0002C11D1134B144A41
:1059A0005A80012301335B001BB2C02292001343D3
:1059B0000E48038010BD11210B4800F02DF8EBE7D5
:1059C000052C0ED8A4000B4BE4580023122BE9D869
:1059D000E25C002AE6D00133590004484252DBB2AF
:1059E000F4E70020E6E7C046C03B0220182800206C
:1059F00009040000B818011010B5024800F03CF886
:105A000010BDC046302F002010B508220149FFF715
:105A1000CDFA10BD302F002010B5002901D0002391
:105A20000AE0114B114A1F311148FDF75FFC0024B9
:105A30000DE03732C25401334A1E9A420FD90F2B60
:105A40000DD85A080B4CA25CDC07F0D40424224188
:105A500014000F222240092AEBDC3032EAE7C0189A
:105A60000023037010BDC046D01801102819011082
:105A7000D8180110302F002070B588B0040004AD94
:105A8000002604960922002105A8FFF789FA00964E
:105A90000922002101A8FFF783FA4B232B700D2266
:105AA000694628000AF0B8FB002304E05A1D694645
:105AB0008A5CE2540133072BF8DD08B070BD0000AA
:105AC00002007F201040D209400080184001014BA5
:105AD000C01870475028002010B5038B3F333F2279
