:020000041000EA
:1000000000B5324B212058609868022188439860DF
:10001000D860186158612E4B002199600221596106
:100020000121F02299502B49196001219960352056
:1000300000F044F80222904214D00621196600F024
:1000400034F8196E01211966002018661A6600F04E
:100050002CF8196E196E196E052000F02FF8012189
:100060000842F9D1002199601B49196000215960AB
:100070001A491B48016001219960EB211966A021F2
:10008000196600F012F800219960164914480160C1
:100090000121996001BC002800D000471248134993
:1000A000086003C880F30888084703B5996A0420EC
:1000B0000142FBD001200142F8D103BD02B5186610
:1000C0001866FFF7F2FF186E186E02BD00000240BE
:1000D000000000180000070000035F00212200005C
:1000E000F4000018222000A00001001008ED00E03C
:1000F00000000000000000000000000074B24E7A12
:1001000000200420F7010010C3010010C5010010F9
:10011000C1010010C1010010C1010010C101001097
:10012000C1010010C1010010C1010010C701001081
:10013000C1010010C1010010C9010010CB01001065
:10014000CD010010CD010010CD010010CD01001037
:10015000CD010010CD010010CD010010CD01001027
:10016000CD010010CD010010CD010010CD01001017
:10017000CD010010CD010010CD010010CD01001007
:10018000CD010010CD010010CD010010CD010010F7
:10019000CD010010CD010010CD010010CD010010E7
:1001A000CD010010CD010010CD010010CD010010D7
:1001B000CD010010CD010010CD010010CD010010C7
:1001C00000BE00BE00BE00BE00BE00BEEFF3058054
:1001D000103800BEF2EB8871D0FD0410F0FD041061
:1001E0003402001090A31AE700201F49086006C8D7
:1001F00081F3088810471D48006800282FD10DA4FE
:100200000ECC002902D000F012F8F9E71849194A7B
:10021000002000E001C19142FCD1174988471749ED
:1002200088471749884700BEFDE701C901C29A42C5
:10023000FBD37047F0FD0410C0000020DC18002044
:100240000C16051000000420000004200C160510F8
:10025000001004200010042000000000704709482E
:1002600004F0E8FB0047000008ED00E0000000D0CB
:10027000E0180020943E022075370010C1040010E1
:10028000313700105756000006005250ABB3605390
:10029000E450011006005250861C0302F450011075
:1002A000060052505422A29D0051011005005250E8
:1002B000DE65F4680C160510F8B5C0460448054B19
:1002C00010B5834203D0044B002B00D0984710BDDB
:1002D000DC180020DC180020000000000648074958
:1002E000091A8B10C90FC91810B5491003D0044B57
:1002F000002B00D0984710BDDC180020DC1800202F
:100300000000000010B5074C2378002B09D1FFF73F
:10031000D5FF054B002B02D0044800E000BF0123AD
:10032000237010BD381A002000000000603C01104E
:10033000054B10B5002B03D00449054800E000BF71
:10034000FFF7CCFF10BDC046000000003C1A0020A3
:10035000603C011010B500F0A9FCC8200EF04CF96B
:10036000F9E7000000B583B00DF0F2F80B4B186010
:1003700008E0180000F0E2FD00F010FDC821074879
:100380000EF0DEF800230193054B1868002201A946
:100390000CF094FB019B002BEBD1EDE7C42D00206A
:1003A0009430002010B584B00E4C012221000020B2
:1003B00000F0C8F901222100012000F0C3F90A4B26
:1003C0001868FA2201A90CF079FB0199029A039BA3
:1003D000002000F07BFC0199029A039B012000F0B1
:1003E00075FCE1E7886001109030002010B500F046
:1003F000B7F8FA2080000EF0FFF8F8E710B500F02B
:10040000A7F805F027FCE12464022100002000F099
:1004100013F92100012000F00FF9024805F068FAF5
:1004200010BDC046603C0110F0B587B000220C2121
:1004300001200CF095F91D4B186000220C210220C0
:100440000CF08EF91A4B18600022012114200CF0D8
:1004500087F9184B186000F05BFA00F035FC00F0EB
:1004600055FC00F08BFD00F051FE00F0FBFD124842
:1004700000F08AFD002415E0210003A800F0E4FD4F
:10048000049D039804F0CCFF06000F00281C04F024
:10049000C7FF0090019132003B002100074805F0A2
:1004A00057FA0134312CE7DD07B0F0BD943000205D
:1004B000903000208C3000207C3C01108C3C0110DE
:1004C00030B585B0194805F013FAFFF797FFFFF72D
:1004D000ABFF80256D0003AB019300240094002343
:1004E0002A00134913480DF095FE0194009400234F
:1004F0002A00114911480DF08DFE0194009400234B
:100500002A000F490F480DF085FE01940094002346
:100510002A000D490D480DF07DFE012103980DF0D4
:1005200001FF0DF0CBFE012005B030BDA83C01104D
:10053000C03C0110ED030010CC3C0110550300102D
:10054000D83C011065030010E83C0110A503001021
:1005500010B507F015FE0121002007F0DDFD10BDEC
:1005600010B50A4B1B78002B07D10121002007F0A2
:10057000D3FD064B01221A7010BD0021002007F0A8
:10058000CBFD024B00221A70F6E7C0468F3E0220D8
:1005900000B583B0114B9B6910210A001A40194223
:1005A00001D003B000BD6B46991D002A09D10B4B49
:1005B0009B69DB06FBD4094B1B680B7001320131D0
:1005C000F3E76B4606331B786A46D11D0B70044B6C
:1005D0001868002300220CF0D3F9E2E70080034002
:1005E000901A002000B583B0114B9B6910210A00BE
:1005F0001A40194201D003B000BD6B46991D002A74
:1006000009D10B4B9B69DB06FBD4094B1B680B70B4
:1006100001320131F3E76B4606331B786A46D11D80
:100620000B70044B1868002300220CF0A9F9E2E7D4
:10063000004003408C1A002070B5041E03D001282E
:1006400035D0002070BD344D280002F0F3FD0221AA
:10065000002000F0D5FD0221012000F0D1FD2F493E
:10066000142000F0FBFF0121142000F0CDFF5023E7
:10067000AB636B6B38221A40294980235B010B4323
:100680001A600022012140200CF06AF8254B186006
:100690001B68002B01D00120D4E7234B1B68DB68CB
:1006A0002822012121480FF003FA2000CAE7204D3B
:1006B000280002F0BFFD0221042000F0A1FD02216C
:1006C000052000F09DFD1B49152000F0C7FF01210A
:1006D000152000F099FF5023AB636B6B38221A4052
:1006E000154980235B010B431A6000220121402041
:1006F0000CF036F8114B18601B68002B01D020005D
:10070000A0E7094B1B68DB68282201210C480FF089
:10071000CFF9002096E7C04600400340E5050010F1
:10072000344003408C1A0020000F0020F03C0110E0
:10073000008003409105001034800340901A00208F
:100740001C3D011030B583B000280DD023E0184BBC
:100750009B699B06FBD41078154B18600131013260
:100760000029F4D022002900541E002A1DD04D1C5F
:100770000B786A46073213700021F1E70D4B9B6935
:100780009B06FBD410780B4B186001310132002915
:10079000F4D022002900541E002A06D04D1C0B78EC
:1007A0006A46073213700021F1E703B030BDC0463E
:1007B000004003400080034030B583B0002842D0A1
:1007C000002358E06B46DA1D1470002008E0404B0F
:1007D0009B699B06FBD414783D4B1C6001300132B1
:1007E0000028F4D00B780D3B5A425341DBB2013163
:1007F0000C78002C6AD0002BE4D1364B00229B5E93
:10080000A3420FD06B46DA1D147000200028E9D1F6
:100810002F4B9B699B06FBD414782D4B1C60013039
:100820000132F3E76B46DA1D0D2313700020002818
:10083000E8D1274B9B699B06FBD41578244B1D60A0
:1008400001300132F3E70023D2E76B46DA1D147062
:10085000002008E0204B9B699B06FBD414781E4BBC
:100860001C60013001320028F4D00B780D3B5A4255
:100870005341DBB201310C78002C27D0002BE4D19E
:10088000144B02229B5EA3420FD06B46DA1D1470FC
:1008900000200028E9D1104B9B699B06FBD41478FB
:1008A0000D4B1C6001300132F3E76B46DA1D0D235E
:1008B000137000200028E8D1074B9B699B06FBD4EE
:1008C0001578054B1D6001300132F3E703B030BDF0
:1008D00000400340283D00200080034030B583B035
:1008E0000C001500084B0193084B0093042201A94A
:1008F000200004F041FE201D0422694604F03CFE65
:1009000008232B8003B030BDA4704541B81E63425C
:10091000014B00221A607047741D002010B500249E
:1009200002E004F079FF0134034B185D0028F8D190
:100930000A3004F063FF10BD283900200B00402965
:1009400009D80F211940402809D80F231840000169
:100950000843C0B270470F2119400931F3E70F2354
:1009600018400930F3E70F231840092801D8303028
:1009700070473730FCE703099F2802D8303318004E
:10098000704737331800FBE710B5002303E0445CE1
:10099000E318DBB201319142F9DB5842C0B210BD1D
:1009A00070B50D4B1B68DE1E023B0C4CE15CA05D7C
:1009B000FFF7C4FF0500320001212000FFF7E4FF2C
:1009C000040002002900064804F0C2FFA54201D03D
:1009D000002070BD0120FCE7C02D0020A8300020C1
:1009E000483D0110F8B51F4B197AD879FFF7A6FFDB
:1009F00000F08DF905001C4C3A2323700120FFF70D
:100A0000BAFF070060700120FFF7ADFF0600A0707D
:100A10000320FFF7B0FFE0700320FFF7A4FF207171
:100A20006771A671EDB22800FFF7A5FFE0712800FD
:100A3000FFF799FF2072082201212000FFF7A4FF91
:100A40000500FFF798FF60722800FFF78CFFA07287
:100A50000D23E372033B237300236373FFF75EFFF1
:100A6000F8BDC046A830002028390020F0B583B07A
:100A7000274C217AE079FFF761FF0500A17A607ABF
:100A8000FFF75CFF0100280000F062F90190214CA3
:100A90003A2323700120FFF76EFF060060700120EB
:100AA000FFF761FF0700A0700620FFF764FFE0700A
:100AB0000620FFF758FF20716671A7712800FFF725
:100AC0005AFFE0712800FFF74EFF20726B461E7937
:100AD0003000FFF750FF60723000FFF744FFA07254
:100AE0000A2201212000FFF74FFF0500FFF743FF17
:100AF000E0722800FFF737FF20730D236373033B79
:100B0000A3730023E373FFF709FF03B0F0BDC046F2
:100B1000A830002028390020F0B5C3B06B46002271
:100B2000DA806B469A1D02A92548FFF7D7FE254CAF
:100B30003A2323700120FFF71EFF60700120FFF7AA
:100B400012FFA0701520FFF716FFE0701520FFF7C9
:100B50000AFF207100240FE002AB1F5D6500053520
:100B60003800FFF708FF174E7055E51C6D00380080
:100B7000FFF7F9FE705501346B4606331B88A3421C
:100B8000EADC5C00671D221D0E4D01212800FFF7E5
:100B9000FBFE0600FFF7EFFEE855A71D3000FFF74C
:100BA000E2FEE855E31D0D22EA540133033AEA540C
:100BB000093400222A55FFF7B1FE43B0F0BDC0460C
:100BC000A83000202839002010B5034B1979D878B7
:100BD000FFF7B4FE10BDC046A830002010B5FFF7E7
:100BE000DFFE002807D0FFF7EFFF06280AD0152800
:100BF0000BD0032803D0064B00221A6010BDFFF76C
:100C0000F1FEF8E7FFF732FFF5E7FFF785FFF2E7C0
:100C1000741D002070B5002004F0A6FEC4B2FF2CA5
:100C200000D170BDFF25054029001C4804F090FE4E
:100C30001B4B1B68002B0DD13A2CF2D1194B002213
:100C40001A60194B1C70164B01321A60280004F010
:100C5000E3FDE6E7012BE4D1124A13680133136088
:100C6000FA229200934205DD00230D4A13600D4ADB
:100C70001360D6E70C4EF454280004F0CDFD094B68
:100C80001B68F25C0A2ACCD1013B074AD35C0D2BCE
:100C9000C7D1034B04221A60C3E7C0465C3D011074
:100CA000741D0020C02D0020A830002010B5FFF7D3
:100CB000B1FF044B1B68042B00D010BDFFF78EFF63
:100CC000FBE7C046741D002070470000F0B58FB0F0
:100CD0000400039104920593049D039804F0A0FB83
:100CE00006000F00281C04F09BFB009001913200CD
:100CF0003B00054906A803F06BFE06A92000FFF79C
:100D00005BFD0FB0F0BDC046643D0110704710B5EB
:100D1000022819D00BDC002811D0012804D100F0E2
:100D2000C5F904F049FB09E00120404206E0032830
:100D300002D100F0A9F901E00120404210BD00F00D
:100D4000AFF904F039FBF9E700F0B6F9F6E7000077
:100D500010B582B004000A0001000C4804F0F8FD50
:100D6000002C0FD10A4804F0C3FD01230193012296
:100D7000084B18680023524201A90BF039FD0120ED
:100D800002B010BD044804F0B3FDF8E7783D01104F
:100D9000903D011094300020A03D0110F0B5DE46DA
:100DA00057464E464546E0B597B000F0A3F904001B
:100DB0005A4B1E68002E00D0A1E0002800D0A5E00C
:100DC00000F062F905000100554804F0C1FD29005A
:100DD00013A800F039F90135280000F05BF929006B
:100DE00010A800F031F9139B9B46149B9A46109B68
:100DF0009846119F5946181C04F05FFA494904F0BF
:100E000062FA051C5146381C04F057FA454904F0B3
:100E10005AFA8146281C00F061F9484600F064F94E
:100E2000584604F0FDFA0A900B91504604F0F8FA87
:100E3000009001910A9A0B9B3B4804F089FD4046C3
:100E400004F0EEFA0A900B91381C04F0E9FA0090D5
:100E500001910A9A0B9B354804F07AFD344B1B68CC
:100E600098680EF08DF8200004F084FA8046291C62
:100E700004F03DFA594604F023FA071C494640465F
:100E800004F035FA514604F01BFA80460D970E9097
:100E9000584604F0C5FA0A900B91404604F0C0FA97
:100EA00008900991381C04F0BBFA06900791484657
:100EB00004F0B6FA04900591281C04F0B1FA0290EF
:100EC0000391504604F0ACFA009001910A9A0B9BF2
:100ED0002100184804F03CFD154B1B6898680EF083
:100EE0004FF80122144B1868002352420DA90BF051
:100EF0007FFC142C00D02600300000F001F917B060
:100F0000F0BCBB46B246A946A046F0BD00F0DAF8F8
:100F1000051C00F0DDF88146A5E7C046B03600208C
:100F2000BC3D01100000A041CC3D0110E83D011086
:100F3000000F0020043E01109030002010B5040086
:100F4000022801D0042802D10A4B02221A60012C87
:100F500004D0032C02D0012C07D010BD064804F0A9
:100F6000C7FC044B00221A60F5E7002000F092F85D
:100F7000F3E7C046B0360020603E0110014B02226C
:100F80001A607047B0360020F0B5C64600B5274C51
:100F9000A54404000100264804F0DAFC254920009D
:100FA0000EF0DEF9051E31D0002480212A00490010
:100FB0004AA80EF065F800282CD0312C2ADC4AA96A
:100FC00002A800F0C3F8029B002BEED0039B002B7D
:100FD000EBD00598184A63001919890088500699C2
:100FE00088461B199B00D318596004F019FA0600B3
:100FF0000F00404604F014FA0090019132003B00CB
:1010000021000E4804F0A4FC0134CEE70C480FF098
:101010004BFA05E028000DF0DDFE0A4804F068FCFC
:101020008A239B009D4480BCB846F0BDD8FDFFFFDD
:10103000743E0110F4600110B4360020B83E011077
:101040009C3E0110D43E011030B50B004900CB1876
:101050009B000349C918030034C934C330BDC046DE
:10106000B436002010B5002308E006495A00D01815
:10107000840000206050091948600133312BF4DDF1
:1010800010BDC046B4360020014B18687047C046FA
:1010900014390020014B18607047C04614390020F5
:1010A000014B18687047C0461C390020014B186876
:1010B0007047C04620390020014B18687047C04671
:1010C00024390020014B18687047C0460C390020B5
:1010D000014B18687047C04610390020014B18605A
:1010E0007047C0460C390020014B18607047C0465D
:1010F00010390020014B18687047C046183900208D
:10110000014B18607047C046183900200022084B78
:101110001A60002307490B6007490B6007490B6001
:1011200007490B6007490B60074B1A607047C046C0
:10113000143900201C3900202039002024390020D7
:101140000C390020103900201839002030B5C9B002
:1011500004000D00902252000021684604F006FAB7
:101160002649280010F0FEFE01000DE0481C0DF09D
:1011700097FD069003E0032207A80FF029FE1F4900
:10118000002010F0EFFE010000292ED00B784E2B2E
:10119000ECD0472BEFD04D2BEDD0582B0AD0592B4C
:1011A00011D05A2B18D03B2BE9D1FF2208A80FF001
:1011B0000FFEE4E7481C0DF06DFD03F0D3FF039034
:1011C00001230093DBE7481C0DF064FD03F0CAFF28
:1011D000049001230193D2E7481C0DF05BFD03F05E
:1011E000C1FF059001230293C9E79022520069468E
:1011F000200004F0C1F9200049B030BD2C5E011080
:1012000010B58300084A944663441C68402262403B
:10121000C02414408022520113431C60C000034BC1
:101220009C466044416010BD04C001400040014044
:1012300080000B4B9C46604400290DD00823002AF7
:101240000CD004221343026853400C221340802226
:1012500052011043036070470023F0E70022F1E7DA
:1012600004C00140002909D08000094B9C4660441D
:1012700080239B0118430223036070478000044BC6
:101280009C466044C0239B01184302230360F4E79B
:1012900004C0014070B5D0231B061B689D00094C9B
:1012A0002C59204207D19B002043064C18510D2099
:1012B00000F0FEF970BD044B044ACC21044802F052
:1012C0003BFAC04698300020F83E0110C03F0110A4
:1012D000243F011010B50400D0231B061B689B009F
:1012E0000A4A9B5818420BD00D2000F0FBFAD0237D
:1012F0001B061B6805499B005A58A2435A5010BD53
:10130000034B044AD621044802F016FA9830002014
:10131000703F01109C3F0110243F01100723034040
:101320009B00C00899403C308000014BC150704781
:1013300000400140F8B507000C0016001D00FFF743
:10134000EDFFFB089B00ED1807203840800084402B
:10135000002E04D080239B011D432C60F8BDC023C8
:101360009B011D432C60F9E710B5D0231B061B68B9
:10137000002B03D0024BFFF7DDFF10BD014BFAE756
:10138000304101400041014010B501238340D0228B
:101390001206936293610521FFF732FF10BD000032
:1013A000034B1B6802201840431E9841C0B270478F
:1013B00000C00640EFF3108072B6034B1B68002B91
:1013C000FBD0BFF35F8F70472C0100D0BFF35F8F5E
:1013D000024B00221A6080F3108870472C0100D065
:1013E000F8B506000C001500FFF7E4FFE308F71856
:1013F000F15C07222240012393400B4205D1DBB26E
:101400000B433B70FFF7E2FFF8BD2100280002F01C
:101410002DFAF0B583B00600019114001F00FFF70C
:10142000C9FF00E00134BC420CD8E308F518F35CB6
:101430000721214001228A401A42F3D1D2B21A4335
:101440002A7001E001246442FFF7C0FF002C02DB98
:10145000200003B0F0BD019B002BF9D0089802F0EA
:1014600005FA000070B505000C00FFF7A3FFE308C4
:10147000EE18EA5C07210C400123A340134204D07C
:101480009A433270FFF7A2FF70BD034B034A2C3121
:10149000034802F051F9C046F43F011060400110CA
:1014A00014400110002307E0054A9A189200BFF388
:1014B0005F8F0021116001331F2BF5D97047C046A3
:1014C00040000034054A1078431CDBB21370172B20
:1014D00002D9130010221A707047C046F80D002080
:1014E00010B50100024A0348FFF77AFF10BDC0465D
:1014F000704001102420002000B583B00100044B8F
:1015000000931F2318220348FFF783FF03B000BD99
:101510009040011024200020074B9B681030800071
:101520001950BFF35F8FBFF35F8F044B0021196029
:1015300082F310887047C04600ED00E0240100D01F
:101540001F23181A7047000010B5091A081F0A4B0C
:101550009C466144094A914208D8C30706D440100A
:101560004005400D064B184380B210BD054B064A9E
:10157000A321064802F0E0F8FC070000FE0F00007F
:1015800000E0FFFFAC40011024430110DC400110DB
:1015900010B5091A04394C08090B08D14905490D41
:1015A000064A11430180064B2343438010BD054B7F
:1015B000054AAB21054802F0BFF8C04600F0FFFF26
:1015C00000F8FFFF24410110F8420110DC40011037
:1015D00001238340034A10681840431E9841C0B25B
:1015E0007047C04600E100E0002904D0034B1860BA
:1015F000034B18607047034B1860FBE780E200E084
:1016000000E100E080E100E010B501238340180014
:10161000FFF7EAFF10BD000001238340014A136079
:101620007047C04600E200E0024B9B68103080002B
:10163000C058704700ED00E010B5FFF7F5FF002837
:1016400005D0054BC01A2F2803D8012010BD00205B
:10165000FCE70020FAE7C046FC0D002070B504004E
:101660000D00EFF3108672B60C4B1B68002BFBD0FD
:10167000BFF35F8F2000FFF7D7FF094B984201D0DF
:10168000A84205D1320029002000FFF745FF70BDB8
:10169000044B054A8621054802F04EF8240100D08B
:1016A000CD0100103441011058430110DC400110FD
:1016B000F0B5DE4657464E464546E0B589B0814610
:1016C00001911500EFF3108A72B6744B1B68002B62
:1016D000FBD0BFF35F8F724B0027DF57002F40DB3B
:1016E0007C00E419A4006F4824180622A2566C4B13
:1016F0001A706D4B9A684B4610339B00D35898462E
:101700001E001B1A2F2B38D9684B98452FD105AED8
:10171000674B33807B009B46D8198000614B98460D
:10172000404402306349FFF70FFF7080624BB38083
:10173000FF23B371F571019B07935F44BF004744DA
:101740000ECE0EC701231C43A046524641464846D2
:10175000FFF7E2FE09B0F0BCBB46B246A946A04680
:10176000F0BD564B564AD721564801F0E5FF564B7F
:10177000534ADE21534801F0DFFFC04340440C21AF
:1017800003F0ACF9002912D101239E43B346330084
:101790000026DA79AA4211D90621595600290CDB14
:1017A0004A00521892001E003E4B9B18F1E7474B2F
:1017B000434AEA21434801F0BFFF1E00002E3AD001
:1017C00005AB434A1A80813A5A800623F3560293A6
:1017D000002B17DA3F4805AB9B469880029A9A7116
:1017E000DD71019A0792301D2100FFF7ADFEB08038
:1017F000B7717B00DB199B002A4FFF185B4607CBB4
:1018000007C7A2E77800C0198000264BC018043033
:10181000321DB388D90A1C2907D15B05591502313D
:1018200049005118FFF790FED5E72B4B2B4AB12109
:10183000244801F081FF05AE1D4B33807B000293ED
:10184000D8198000174A9046020042440392901C27
:101850001849FFF779FE7080039A101D5946FFF76B
:1018600073FEB0801E4B5A464146521A52415343B2
:101870001B0DB371F571019A0792029B9C46674458
:10188000BF0047440ECE0EC7114B5A461380813B12
:10189000538001231C43A04657E7C046240100D0D3
:1018A0008D3E0220FC0D002000ED00E0CD01001077
:1018B00000A1FFFF2C0E002001BDFFFF6C410110B5
:1018C00040430110DC40011094410110BC41011063
:1018D0000148000001BD00003042011030430110FA
:1018E000AAAA0000F0B5CE46474680B583B00600F0
:1018F0000D00EFF3108872B6564B1B68002BFBD01F
:10190000BFF35F8F544B9A6834001034A300D7584C
:10191000524B9F4207D0AF4200D198E00197504B05
:10192000FB1A2F2B09D9424639003000FFF7F4FD8E
:1019300003B0C0BCB946B046F0BD3000FFF748FE6A
:10194000814600213000FFF75FFEBFF35F8FEFF3AA
:101950000581002901D08C4211D10123019C9C43B7
:101960000022A368AB4212D00622A256002A0DDB49
:1019700053009B189B002200394CE418F1E73621F4
:10198000384B394AFF31394801F0D6FE2200AB42CC
:1019900056D106256557002D38DB6B005B199A0080
:1019A0002F4B9B189A68A260DA79E27106229A5648
:1019B000A2719B795BB2002B0FDA2D48A0806B00DF
:1019C0005B199B00264AD3182A4A11789971157021
:1019D00049463000FFF718FEA5E7201D6B005B1994
:1019E0009B001F4A9B181A1D9B88D90A1C2907D1E6
:1019F0005B055B15023359005118FFF7A5FDDDE7C4
:101A00001D4B1E4AB121194801F096FE002912D142
:101A1000002A0ED0FF239371194B9380154A137837
:101A2000A371184B0E49641A644163431B0D137074
:101A3000CEE70A4FF2E7201D1349FFF7A9FDC7E7DC
:101A40006A21124B084AFF31084801F075FE034F26
:101A500069E7C046240100D000ED00E0CD01001090
:101A6000FC0D00204842011010430110DC40011021
:101A700001BD00008D3E02203042011030430110B4
:101A800001BDFFFFAAAA0000360E00207C42011013
:101A900010B5032304009C43064A9446644422681C
:101AA0001840C000FC3383409A43130081400B432D
:101AB000236010BD00E400E070B5012101432E4B0E
:101AC000CB1A2F2B28D8EFF30583002B2BD0EFF365
:101AD000108C72B6294A1268002AFBD0BFF35F8FC0
:101AE000274A0400244D641B64416243120D54B222
:101AF000244A92689B00D2588A421BD00022032AB3
:101B000032D853009B189B001B49CB189B795BB2C2
:101B1000A3421FD00132F2E7C7211B4B1B4A4900E9
:101B20001B4801F009FE92211A4B184AFF31184850
:101B300001F002FE134A92681749D150174B1A78E8
:101B400082711C70BFF35F8F0C4B00221A608CF304
:101B5000108870BD0D005300991889006918FF2680
:101B60008E710F4A8A80E9E7D1210E4B074A49005E
:101B7000074801F0E1FDC046FC0D0020240100D023
:101B8000AAAA000000ED00E084420110DC4201102E
:101B9000DC400110AC420110CD0100108D3E02204E
:101BA00001BDFFFFB84201100022044B02E00449CE
:101BB00002C30132072AFAD97047C04600E400E0A8
:101BC0008080808010B5FFF7BBFC01000148FFF763
:101BD00049FC10BD933E022000B583B00100064BC6
:101BE0000093052300220548FFF713FC002801DBC2
:101BF0001F23181A03B000BDC0420110933E0220FB
:101C000070B504000E001500FFF75CFC0100200019
:101C100000F006F8A680E580BFF35F8F70BD00007E
:101C2000024B9C46614489000160704740000034CB
:101C300010B50400FFF746FC01002000FFF7F0FF9D
:101C400001235B426360BFF35F8F10BD10B50400DA
:101C5000FFF738FC01002000FFF7E2FF01235B42A1
:101C6000636000232372BFF35F8F10BD034B9C465C
:101C7000614489000160BFF35F8F7047400000340A
:101C800010B504000120FFF737FC01002000FFF72A
:101C9000EDFF10BD70B505000C00080000F0BEFFA0
:101CA0000949200000F0FEFEFFF70CFC074B9C46A4
:101CB0006044800068602C75D0231B061B786B7510
:101CC000A400034BE55070BDD11F0010400000344C
:101CD000D82D002010B5084B1A68EFF3108172B6AA
:101CE0001368002BFCD0BFF35F8F03480AF082F922
:101CF0000020002110BDC0469436002010B50029F8
:101D000022D003681B7B99421ED8174B9C46614426
:101D1000090183689C4661440C684968002A19D00F
:101D200003681B7B9A4215D883680F488446624437
:101D300012019A1810685368020001208B4201D8E2
:101D40000ED00020C0B210BD084B094A3C21094802
:101D500001F0F2FC054B064A3C21064801F0ECFC80
:101D6000A242EFD8EDE7C046FFFFFF0F604501102C
:101D7000F44701101C45011010B500291ED0037B4B
:101D800099421BD84B005B18033B0468A44663448C
:101D9000002919D0002A1DD0914221D0002A25D037
:101DA000047BA24222D8046850008018033820180F
:101DB0008170197800291FD11A7010BD104B114A7B
:101DC0006821114801F0B8FC104B114A6F310E48E0
:101DD00001F0B2FC0F4B0E4A70210B4801F0ACFC35
:101DE0000D4B0B4A7121084801F0A6FC044B054A33
:101DF0006821054801F0A0FC41701A70DDE7C0467B
:101E00008445011074480110A0450110F4450110EB
:101E100050480110004601100C46011070B5060034
:101E20000D001400002914D0002A14D080687368B3
:101E30009847002806D0220029003000FFF79CFFB9
:101E4000280007E02A0021003000FFF795FF20005E
:101E500000E0100070BD0800FCE70000F0B583B0A2
:101E60000500009201930AAB1C780BAB1F78002C85
:101E700026D003685A7B944207D10123002B19D145
:101E8000002C3BD1200003B0F0BD002C0CD01A7BFD
:101E9000944209D81A6863001B19033BD3189B7836
:101EA000002BEBD00123E9E73E4B3F4A68213F4836
:101EB00001F042FC3E4B3F4A67213F4801F03CFCA9
:101EC00003689C7B002CDBD012D01A7B94420FD885
:101ED00062001219033A19688C466244517899736A
:101EE000002900D1D9730023937053701370C7E792
:101EF0002C4B2D4A68212D4801F01EFC002C3AD0B5
:101F00002B681B7B9C4236D82C4BE3181B01AA681C
:101F100094466344009A1A60019A5A60089A9A603B
:101F2000099ADA602E68002C2BD030D0337B9C428B
:101F30002DD863001B19033B32689446634400228A
:101F40009A705A701A70717B22003000FFF766FF9A
:101F50007073844200D095E7287D009A019B00F0C1
:101F6000E9FD061E01D0002F17D00C9B002B00D1DD
:101F700088E71E7086E7124B124A3C210E4801F09A
:101F8000DBFB114B114AA521084801F0D5FB054B9D
:101F9000054A6821054801F0CFFB2868210001F0BF
:101FA0003FF8E2E78445011074480110A045011094
:101FB00024460110804801101C450110FFFFFF0F4F
:101FC00060450110F44701101845011064480110E4
:101FD000F0B5DE4657464E464546E0B58BB0099013
:101FE000002308938200B54BD658370052E0B44B1B
:101FF000B44A3F21B44801F09FFBB44BB44A3C21A2
:10200000B44801F099FB002901D1002869D10021D1
:10201000404600F0FBFFA04219D12A686B68069287
:102020000793AB689846EB689A464346002B14D05A
:10203000002C18D03B681B7B9C4214D8631EFA68A6
:10204000D35C08931B0218433861002015E0A24BB3
:10205000A24A8E219F4801F06FFBA14B9F4A92211B
:102060009C4801F069FB994B9E4A4121994801F037
:1020700063FB00239A46984600207B68BFF35F8F7E
:1020800000221A6086F310884346002B32D10028C4
:1020900000D10CE100F0C2FC02000B1EA7DB002007
:1020A0000021069007917868EFF3108672B60168F8
:1020B0000029FCD0BFF35F8F396888464C7B002C29
:1020C000D7D09AD0097B8C4297D8874965182D01C3
:1020D000B9688C46654428686968801A9941002966
:1020E00091DD2A686B68099800F024FD00239A4668
:1020F0009846C2E7089B1B022343994651461800A5
:10210000C04705000E007A68EFF3108B72B61368B3
:1021100059424B41D9B2002BF9D1BFF35F8F002E4A
:102120001EDB002E46DD3B69002B47D04B456DD1B1
:1021300000F074FC02000B1E6EDB52197341002B81
:1021400070DB002B72DB00210491013103910294BA
:1021500051460191414600913800FFF77FFE4CE067
:102160003B69002BDDD04B4514D1069A079B521BCF
:10217000B341002B14DB002B16DB0021049101314D
:102180000391029451460191414600913800FFF7B6
:1021900065FE32E0554B514AA1214E4801F0CCFA80
:1021A00001225242524BE6E7454B464A3F21464800
:1021B00001F0C2FA002E01D1002DB4D13B68002CF1
:1021C00050D05A7B944237D1012100294AD1DA7B81
:1021D000002A4DD19A7B002A03D1DA7B002A5AD1FA
:1021E0009C73DC73002C5CD03B681B7B9C4258D8F2
:1021F000FA68013C135D0133135500233B617A6893
:10220000BFF35F8F13608BF3108843E7374B334A7C
:10221000A421304801F090FA294B2A4A3F212A484C
:1022200001F08AFA01225242314B8AE7244B254AB7
:102230003F21254801F080FA002C0DD01A7B9442F2
:102240000AD862001219033A1868844662449278E8
:10225000002ABAD00121B8E7264B274A682127482F
:1022600001F06AFA264B274AF621244801F064FA65
:10227000002A0AD0197B8A4207D851008A18033AEB
:1022800019688C4662445470A4E71A4B1A4A6821B4
:102290001A4801F051FA1C4B1A4AFB21174801F069
:1022A0004BFA0A4B0F4A41210A4801F045FA0BB09C
:1022B000F0BCBB46B246A946A046F0BDD82D0020D2
:1022C000D4430110C0470110F043011060450110D4
:1022D000F44701101C4501104C460110D84701106D
:1022E000644601102C480110FFFFFF0F70460110DB
:1022F000FFFFFF7F8445011074480110A0450110C5
:10230000AC46011040480110D046011010B50C4BEE
:102310005B68002B04D00A210A48FFF781FC10BD3E
:10232000074C2300084A1021206800F061FD0320BB
:1023300000F050FB03212000FFF7ACFCEBE7C046A8
:10234000440E002094360020FD1C001010B5064BF2
:102350005B68002B01D0044810BD044B044A5E2189
:10236000044801F0E9F9C046440E0020E44601109B
:10237000144801101C45011070B50500182003F029
:102380009FF8040002000C49280000F038FD20608E
:102390001021280003F0B2F8A0600121280003F00A
:1023A000ADF8E060012000F029FB01002000FFF7FC
:1023B00071FC200070BDC046FD1C001010B504006B
:1023C000164B98421DD0037D9900154A8A588242C7
:1023D0001DD19B00124A00219950006800F025FD94
:1023E000207D002100F05EFB207D00F0FFFAE06818
:1023F00003F0A4F8A06803F0A1F8200003F09EF811
:1024000010BD084B084AD321084801F095F9084B44
:10241000054AD721054801F08FF9C046440E002037
:10242000D82D00207C420110004801101C450110ED
:1024300008470110F0B5DE4657464E464546E0B522
:102440008BB0804616001F00149B9A46159B994638
:1024500016AB1B789B461F2302AA944663440022B6
:102460001A702BE0002809D042461268127B904275
:1024700004D8421E4146C9688A5C41E0404B414A4B
:102480004121414801F058F907984CE0361BAF4113
:10249000002F07DB002F11DA3C4B3D4A3F213D481E
:1024A00001F04AF9012676423B4FF3E7374B384AB1
:1024B0003F21384801F040F9002F4FDB43465A686E
:1024C000EFF3108472B6136859424B41D9B20791A9
:1024D000002BF8D1BFF35F8F1F3302AA94466344E9
:1024E00004930023039302934B46019353460093B6
:1024F00032003B004046FFF7B1FC031EB2D10200A0
:1025000041464968BFF35F8F00250D6084F3108852
:10251000002B29D01F2302A98C4663441B78002B73
:10252000B2D112021043002B20D05B46002B1DD0ED
:102530004946D04704000D0003000B431DD000297D
:10254000A4DB00F06BFA06000F1EAFDB36196F41FB
:10255000002FB1DA012676420F4FADE70B4B0C4A44
:102560003F210C4801F0E8F8012040420BB0F0BCDC
:10257000BB46B246A946A046F0BD0798F6E7C0465E
:10258000604501102C4801101C450110D443011076
:10259000C0470110F0430110FFFFFF7FF0B589B085
:1025A00005001F216944002008706868EFF3108758
:1025B00072B601680029FCD0BFF35F8F1F21694408
:1025C000049101210391002102910F9901910E992B
:1025D00000912800FFF742FC0400031E12D1060000
:1025E0006A68BFF35F8F0021116087F31088002BAA
:1025F0001CD01F236B441B78002B13D130022043C7
:1026000009B0F0BD002807D02A68127B904203D899
:10261000421EE9688E5CE3E7064B074A4121074802
:1026200001F08AF8287D00F019FBE7E7012040421D
:10263000E6E7C046604501102C4801101C4501101A
:10264000F8B50400002900D162E04268EFF310857C
:1026500072B6136858424341D8B2002BF9D1BFF388
:102660005F8FCBB22268567BB3421BD1012000287A
:1026700048D0206988422BD0090AC9B2002B2ED03D
:102680002068007B83422AD8581EE668305C884266
:102690002BD000206368BFF35F8F00221A6085F3A0
:1026A0001088F8BD002B0DD0167BB3420AD85E000F
:1026B000F618033E1768BC466644B678002ED6D09E
:1026C0000120D4E7134B144A6821144801F034F870
:1026D0002C21134B134AFF31134801F02DF8134BF3
:1026E000134A4121104801F027F81900100000F0AA
:1026F00097FC0028CED199210E4B0A4A49000A487E
:1027000001F01AF823698B42C4D100232361C1E789
:102710000020C6E78445011074480110A04501104F
:1027200030470110A84701101C45011060450110F9
:102730002C48011054470110407D7047F0B587B018
:1027400006000F00EFF30583002B1FD1962464428F
:10275000E517A4197D418D4202D803D1844201D9E5
:1027600000240025002D14DB0494059500F056F993
:1027700002000B1E13DBA41A9D41002D17DC14D0A0
:102780003000390000F056F907B0F0BD204801F0E4
:102790006DF8204B204A3F21204800F0CDFF1D4B13
:1027A0001D4A3F211D4800F0C7FF002CE8D0FFF76D
:1027B000CDFD002302930193194B0093049A059BCE
:1027C000FFF738FE002812DADAE7002300E00023E2
:1027D000002BD5D1134B1A68EFF3108172B6136832
:1027E000002BFCD0BFF35F8F0E4809F09DFB0499CE
:1027F000059A0D4B5B6A9A42E9D80B48806A884279
:1028000003D29A42E1D00123E2E70123E0E7C04688
:1028100058470110D4430110C0470110F043011084
:10282000D51C0010943600200040054070B504000F
:102830000D0000F0F3F802000B1E0ADB2000290057
:102840008018594100290ADB00290CDBFFF776FFCD
:1028500070BD084B084A3F21084800F06DFF012079
:1028600040420749F0E7034B034A3F21034800F089
:1028700063FFC046D4430110C0470110F04301106C
:10288000FFFFFF7F10B5FA2292000023002102F023
:10289000F7FCFFF7CBFF10BD70B584B005000C004E
:1028A000EFF30583002B1ED1FFF750FD00230293A9
:1028B0000193224B00932A002300FFF7BBFD061E65
:1028C00023DD20BFFFF742FD3100FFF7B9FE1C4BAF
:1028D0005B6A9C422DD81A4A926AAA422CD29C4228
:1028E00025D0012026E0164B5B6A994209D8144A8C
:1028F000926A824207D2994201D001201AE0002058
:1029000018E0002016E0012014E00D4B5B6A9C42A9
:1029100009D80B4A926AAA4207D29C4201D00120F0
:1029200008E0002006E0002004E0012002E0002092
:1029300000E0002004B070BD0120FBE7D51C0010B2
:102940000040054070B5EFF305801038EFF3108CB0
:1029500072B61A4B1B68002BFBD0BFF35F8F0122AE
:102960001300834016494B6316490B6016490978DA
:102970000C00C440224214D0114A546A8200134D04
:102980005259944206D38200114C125999430E4B6E
:10299000197007E00A4A031D9B00995899500022BC
:1029A00000E00022BFF35F8F044B002119608CF31D
:1029B0001088002A00D0904770BDC046280100D082
:1029C000004005403C700540923E0220A0360020A9
:1029D000E41E002010B50100024A0348FEF700FD86
:1029E00010BDC046A04801108B3E022010B501006A
:1029F0000148FEF737FD10BD8B3E022000B583B0C5
:102A00000100044B0093032300220348FEF701FD5D
:102A100003B000BDC44801108B3E0220044B5B6A2A
:102A2000034A906A1900536A9942F9D17047C04627
:102A300000400540084B5B6A01E0074B5B6A8B4234
:102A4000FBD301E0044B5B6A8B4203D1024B9B6AD0
:102A50008342F7D37047C0460040054070B504007C
:102A60000D00FFF7DBFF02000B002000290080189B
:102A700059418B4202D804D1824202D901204042FE
:102A8000C117002902DBFFF7D5FF70BD024B034AD7
:102A90003F21034800F050FED44301106449011067
:102AA000F043011070B504000D00EFF3108672B60C
:102AB0001B4B1B68002BFBD0BFF35F8F002D1CD07E
:102AC0002000FEF7B1FD174B83420BD01900200008
:102AD000FEF7C4FD01212000FEF796FD0123A3406F
:102AE000114A1360A400114BE550BFF35F8F0C4BEC
:102AF00000221A6086F3108870BDA2000B4B0021E3
:102B0000D1500122A2400A490B7893430B7005492A
:102B10002000FEF7E7FE00212000FEF775FDE4E748
:102B2000280100D04529001038600540E41E00202F
:102B3000923E0220F0B5DE4600B584B004001500D8
:102B400001921E000293FFF769FF03958E4202D89F
:102B50004ED185424CD9EFF3108B72B6274B1B68D0
:102B6000002BFBD0BFF35F8F254A17780125A540C6
:102B7000EBB23B431370234B5D63221D920001991E
:102B8000D150A2002049029850501B6A2B4212D10A
:102B90001C4B1B6C2B4208D00020BFF35F8F174BE0
:102BA00000221A608BF3108823E0184B184AC521C5
:102BB000184800F0C1FDFFF731FF8E4214D802D152
:102BC000039B834210D80E4B1B78BB420ED00D4B9B
:102BD0001D625D631F2004400123A3400E4A136061
:102BE000074B1F701E38D8E70020D6E70120D4E736
:102BF000012004B080BCBB46F0BDC046280100D017
:102C0000923E022000400540A0360020D848011026
:102C100048490110FC48011080E200E0EFF3108CFD
:102C200072B60B4B1B68002BFBD0BFF35F8F0123E9
:102C30008340084A136208490A789A430A70BFF32E
:102C40005F8F034B00221A608CF310887047C046D8
:102C5000280100D000400540923E0220EFF3108C86
:102C600072B60B4B1B68002BFBD0BFF35F8F0123A9
:102C70008340DAB20749087802430A70BFF35F8FD6
:102C8000034A002111608CF31088034A13607047D7
:102C9000280100D0923E02203C60054010B500297A
:102CA0001ED0037B99421BD84B005B18033B046882
:102CB000A4466344002919D0002A1DD0914221D096
:102CC000002A25D0047BA24222D804685000801834
:102CD000033820188170197800291FD11A7010BD8F
:102CE000104B114A6821114800F026FD104B114A83
:102CF0006F310E4800F020FD0F4B0E4A70210B483B
:102D000000F01AFD0D4B0B4A7121084800F014FD2C
:102D1000044B054A6821054800F00EFD41701A7009
:102D2000DDE7C04684450110744A0110A04501103A
:102D3000F4450110604A0110004601100C460110D4
:102D400070B506000D001400002914D0002A14D01C
:102D5000806873689847002806D022002900300058
:102D6000FFF79CFF280007E02A0021003000FFF752
:102D700095FF200000E0100070BD0800FCE7000097
:102D800010B50023437301338373037BC3730123A3
:102D9000027B9A4214D9002B0CD0027B934209D8B3
:102DA0005A00D218033A01688C4662440133DBB200
:102DB0005370EDE70B4B0C4A68210C4800F0BCFC4B
:102DC000002A09D0924207D8016853009A18033AA2
:102DD0008A180023537010BD024B034A6821034830
:102DE00000F0AAFC84450110744A0110A0450110AE
:102DF00010B5017342608360FFF7C2FF10BDF8B5E4
:102E000005000E0017001021012002F077FB0400DE
:102E10000321280002F072FB20603B0032002900F1
:102E20002000FFF7E5FF2000F8BD10B504000068A2
:102E300002F084FB200002F081FB10BD70B504009D
:102E4000081E00D170BD002934D0237B994231D8AF
:102E50004B005B18033B2268944663445A78002A6F
:102E6000F0D02DD0237B9A422AD853009B18033BE5
:102E700021688C4663445D7800215970002825D074
:102E8000237B984222D843001B18033B21688C46C1
:102E900063440021597001002000FFF751FF060034
:102EA00029002000FFF7CAFF020031002000FFF7D1
:102EB00047FFC7E7084B094A6821094800F03CFC76
:102EC000054B064A6821064800F036FC024B034ACF
:102ED0006821034800F030FC84450110744A011059
:102EE000A045011070B505000C00160000292FD078
:102EF00034D0037B994231D84B005B18033B026806
:102F0000944663445A78002A2ED19A78002A31D107
:102F10001978FFF793FF0300002E0AD0EA7B002AFE
:102F20002ED1AA7B002A03D1EA7B002A3BD1AC73C5
:102F3000EC73002B3DD1002C4FD02B7B9C424CD806
:102F40002B6861000C19033C1C190023637070BDD1
:102F5000254B264A3821264800F0EEFB254B264A11
:102F60006821264800F0E8FB254B204A3A212048FA
:102F700000F0E2FB234B1D4A3B211D4800F0DCFB27
:102F8000002A0AD0297B8A4207D851008A18033ABE
:102F900029688C4662445470C3E7164B164A682170
:102FA000164800F0C9FB184B104A4221104800F0A7
:102FB000C3FB002B0BD02A7B934208D843001B187D
:102FC000033B2A689446634400229A70B3E7094B96
:102FD000094A6821094800F0AFFB064B064A682100
:102FE000064800F0A9FBC0467C4901104C4A01107C
:102FF0008449011084450110744A0110A045011054
:10300000C8490110F0490110D046011070B5040004
:103010000A00457B2900FFF765FF6073280070BD3B
:1030200070B50400002967D0437B8B420ED0002985
:1030300011D0037B99420ED84B005B18033B02680A
:10304000D0188378002B0CD1002056E00121FFF727
:10305000DDFF012051E0294B294A6821294800F071
:103060006BFB002B20D0227B93421DD85A00D31833
:10307000033B2268D2182568EB5C8B421AD0002BE8
:103080001BD0227B934218D85A00D318033B2268E6
:10309000D21853788B4216D0002BF0D11A4B1B4A12
:1030A0006B211B4800F048FB144B154A682115485A
:1030B00000F042FB4378137007E0104B104A682180
:1030C000104800F039FB437853700023837043703D
:1030D00001222000FFF706FF0200617B814205D03C
:1030E0002000FFF72DFE6073012006E0094B074A20
:1030F0007121074800F020FB002070BD84450110BD
:10310000744A0110A0450110B8420110344A011060
:1031100084490110144A011070B5046BE30701D40F
:10312000200070BD02003032C0239B0113430A4AC5
:103130001A60456A826AAD01AD18AD02062000F042
:10314000BDF9064901F0CAFC0100280001F0C6FCE7
:103150000021FFF783FCE3E7010300004E0E0000AF
:1031600070B504000E001500FFF7D6FF22002C32C8
:10317000E16A4E40354080235B0113431D602063AC
:1031800070BD000070B505000C00062000F096F937
:10319000C000210001F0A2FCC60908D00E4B9E42DF
:1031A00016D87F23184001303400460800E001247F
:1031B0006C62AE62002200212800FFF7D1FF0620DA
:1031C00000F07CF98000A101891901F087FC70BD35
:1031D0000026024CECE7C046FEFF0000FFFF0000A7
:1031E00010B505394901013AD2001143002B09D02D
:1031F00002220A43012B07D0002111436E22FFF760
:10320000AFFF10BD0022F4E70421F6E7002909D042
:103210000A22064B9C466044434258414000044BFE
:10322000C252704780225200F3E7C0460080FCBFC4
:10323000283D002070B505000C00062000F03EF986
:10324000061E27D0164B9D4226D08022D203154B56
:103250001A60154B1A60154B9B6811009943FAD1FF
:1032600000212800FFF7D2FF21002800FFF78AFF86
:1032700006000023012208212800FFF7B1FF2A00E1
:103280002C3280239B01134310221A60084B2B63BE
:103290000323AB64300070BD80221204D7E7C04620
:1032A0000080034000E0004000F0004000C000400B
:1032B00001030000F8B5DE4657464E464546E0B5E8
:1032C00005000F0092460A9A934250D31A0E914677
:1032D0001E020A9A00233000494601F03DFC804658
:1032E0006C006419A400304B9C46644463688342BC
:1032F00000D260602B1FDBB29B46012B3DD9C0235F
:103300009B012343802212011A60AB00274A99587F
:10331000002907D0506901F0E1FB431C5800C01898
:103320000338FDD253465A0123685A40E0231A401D
:1033300080235B0123431A605A46012A28D980233F
:103340009B012343802212011A6043466360424678
:1033500000233000494601F0FFFBAD00134B5851EC
:103360000120F0BCBB46B246A946A046F8BD104BB2
:10337000104A3321104800F0DFF9012FBFD1C023DC
:103380009B01234303221A60A368DB07FCD5C9E72E
:103390002168794003220A401A60A2680123BB40D9
:1033A0001342FAD0CBE7C04600800040282000201E
:1033B000804A0110E44A0110944A011030B583B0EC
:1033C0000C2000F011F9FDF7EBFF00280DD00023D1
:1033D00004E099002D4A2E4888500133092BF8D972
:1033E0002A4B2C4A5A6203B030BD2B4B00229A67FD
:1033F00000F06CF9294B01221A60274B5B6C012B02
:10340000FBD1274B03221A60234B9B6B012BFBD173
:10341000013300930433234A0121234800F054F878
:1034200005230093214A0121214800F04DF8214B4A
:103430000093002202210420FFF73CFF1E4D00955F
:103440002B00002201210520FFF734FF104C0094CF
:103450002300002200210720FFF72CFF0094230007
:10346000002200210820FFF725FF0A4B00932300CC
:10347000002200210920FFF71DFF00952B000022EC
:1034800000210620FFF716FFADE7C04628200020E8
:10349000006CDC021BB70000008000403CB0004024
:1034A00030B00040002F685900800240008C8647F1
:1034B00000C00240001BB700405973078000014B59
:1034C000C058704728200020F0B5C64600B504005B
:1034D0000E0017001D00374801F000FB8046364BF8
:1034E000FA18364B9A4239D80100380001F0F6FA42
:1034F0000200103A98235B009A4235D86B1E062BC7
:1035000038D8069B013B062B34D83F09474537D3B3
:103510002D04069B1A0315432368002B36DB284B2A
:103520009C4244D080225201264B1A60264B1A60DE
:10353000264B9B6811009943FAD12660A060231D99
:10354000C02292011A43212313602368002BFCDA66
:10355000E5600823136080BCB846F0BD1C4B1D4AD3
:1035600011211D4800F0E8F81C4B1A4A19211A488D
:1035700000F0E2F81A4B174A1C21174800F0DCF85B
:10358000184B144A2321144800F0D6F822683F2330
:103590001340B342C3D1A3681B051B0D8342BED1A8
:1035A000E368EE22D2021340AB42B8D1D3E78022C7
:1035B0009201B9E7001BB70080E84BD380F8A9322D
:1035C00000C0024000E0004000F0004000C00040A9
:1035D000F44A0110204C0110544B01109C4B011077
:1035E000B84B0110044C011080239B000343014A97
:1035F000D362704700800540024B1A68024B5A6044
:103600007047C046C82D00200080054010B502005C
:10361000164B8020C0051860154B1648186000290D
:103620000AD0154BE021C9041960002A09D1124BB8
:10363000802212061A6010BD0C4BE021C9041960EB
:10364000F3E753019B1A9800801800010B4B186098
:1036500080235B04984202D3084B094A1A60FFF7A3
:10366000CBFF054B8022D2051A60E4E700B005408D
:1036700008200140FCFF010000A00540C82D0020EB
:10368000FFFFFF0010B5030010000C4A8024E40582
:103690001460002B0DD001221343094A094CD46158
:1036A000094C5C401462516293620021FFF7AEFF47
:1036B00010BD034B0022DA61F7E7C04600B00540B9
:1036C00000800540D3C007B02D3FF84F064BAA221B
:1036D00012011A602F22DA60044B054A1A60024B6D
:1036E0005B68002BFBDA704700400240006002403C
:1036F00000B0FA0000BEFDE703000A4A1268002A83
:1037000008D0084A1068C318074A9A4206D3054AE7
:1037100013607047034A05491160F2E701204042F7
:10372000F7E7C046BC29002000000420943E022098
:1037300010B5FFF7DFFF000010B582B00C001900D4
:10374000002A0CD0084B002A0BD0019200932300D2
:103750000200064802F0FCF80120FFF7CBFF044B03
:10376000F1E7034AF1E7C0462C4C01103C4C011034
:10377000C83D011070B52B4B2B4A1A602B4B2C4ABD
:103780001A602C4B9A682A4B9343FAD12A4C01E0D9
:1037900008CC9847294B9C42FAD3FFF70FFE234BE6
:1037A000274A1A60234B9B68DB43DB01FAD1254B88
:1037B00040229A675A671A67DA66234C09E0234B5E
:1037C000234A87212348FFF7B7FF2000FEF730FA8E
:1037D0000834214B9C4209D22368002BF5D0012BE1
:1037E000EDD12000FEF732FA0C34F2E71B4CA16851
:1037F0001B4DC022280001F0BFFEA560EFF305833A
:10380000002B00D000BEFDF74DFEFEF7CDF9FEF710
:103810007DFD144C01E008CC9847134B9C42FAD331
:1038200070BDC04600E00040BFCDFBFE00F0004090
:10383000FE7F3C0000C00040C0180020D0180020CF
:10384000FFFFFF0100F00140B01800206C4C011098
:10385000F84C01108C4C0110C018002000ED00E065
:1038600000000020D0180020DC1800200FB400B5A4
:1038700083B0084802F03CF8049B002B07D005A950
:103880000191180002F044F8034802F031F80120D9
:10389000FFF730FFD84C0110743D011010B50148FE
:1038A000FFF7E4FFE84C01109A4200D288547047B9
:1038B000704710B5002802D00B684968984710BDC2
:1038C0000100002007E083001B185B00501C08600B
:1038D0001078C01830380A681378303BDBB2092BF7
:1038E000F1D97047F0B5DE4657464E464546E0B53D
:1038F00083B093461F000C9B9A460D9C0E9B9946E5
:103900000F9B9B0703D0B8460F00060022E00192F0
:10391000A34688464E46B9460700B44207D2551C16
:103920004B4641462020B84701342A00F5E73D00C8
:103930004F465C46019B9B46B1464646B84637001B
:103940002E0007E0013C551C5346185D43463900E4
:10395000B0472A00002CF5D135003E0047460F9BAA
:103960009B0707D4100003B0F0BCBB46B246A94683
:10397000A046F0BDB0464E46B9462F005D46531BEB
:10398000B342EFD2541C4B4641462020B847220098
:10399000F5E7F0B5CE46474680B585B094469846E3
:1039A0000C9D0D9C0EAB1B789946109A119B129E94
:1039B000B7071CD4002B0CD0F7070AD54F46002FB1
:1039C00002D10C37374204D0013B02E030272F559B
:1039D0000134944201D21F2CF8D9F70707D59C4235
:1039E00005D21F2C03D830272F550134F5E7F706F1
:1039F00015D5770505D4002C03D0944224D09C42E1
:103A000022D00F9A102A2BD00F9A102A30D00F9A5A
:103A1000022A35D01F2C02D830222A5501341F2CFF
:103A200005D84A46002A31D02D222A550134039662
:103A300002930194009543466246FFF753FF05B099
:103A4000C0BCB946B046F0BD621E012C06D00F9F27
:103A5000102F01D01400D4E7023CD2E71400D0E7C5
:103A6000B206D1D41F2CCFD878222A550134D1E701
:103A7000B206CCD51F2CCAD858222A550134C9E722
:103A80001F2CC7D860322A550134C3E7720703D50B
:103A90002B222A550134CAE73207C8D520222A55DD
:103AA0000134C4E7F0B5DE4657464E464546E0B51C
:103AB00093B081468A46089209931CAB10CB1B78C1
:103AC0009B461E9D219B9846002C03D11023424605
:103AD0009A4390468023DB0046461E4042461A42E7
:103AE00012D0002C22D000260EE03033D9B2771C41
:103AF0000AAB99552900200000F0F0FFAC4216D324
:103B00001F2F14D83E0004002900200000F0E6FF1B
:103B1000CBB2092BE9D94246920605D54121C918F5
:103B2000C9B20A39C9B2E2E76121F8E72700434682
:103B30000693209B05931F9B049303955B4602937A
:103B400001970AAB0093099B089A51464846FFF734
:103B500020FF13B0F0BCBB46B246A946A046F0BD5C
:103B6000F0B5DE4657464E464546E0B595B008905E
:103B700009910A920B931E9E1F9C20AB1B789B46BB
:103B8000229B9946239D269B9A463300234303D1CB
:103B9000103352469A4392468023DB0057461F401B
:103BA00052461A4219D0330023432DD0002714E087
:103BB0003033DAB27B1C98460CABDA554A462B0000
:103BC0003000210000F0C8FFA5421FD819D043469D
:103BD0001F2B1BD8474606000C004A462B0030001E
:103BE000210000F0B9FFD3B2092BE1D95246920669
:103BF00005D54122D218D2B20A3AD2B2DAE761220E
:103C0000F8E7B145E3D901E000239846534606930F
:103C1000259B0593249B04934B4603935B46029399
:103C2000434601930CAB00930B9B0A9A09990898A1
:103C3000FFF7AFFE15B0F0BCBB46B246A946A046A2
:103C4000F0BD0000F0B5DE4657464E464546E0B5AD
:103C500091B083468A460C9298461A9C08941B9D04
:103C6000099522002B002000290001F0F8F9002816
:103C700000D0E5E001225242D74B2000290001F09C
:103C8000E9F9002800D0DBE001225242D34B2000AA
:103C9000290001F0C9F9002800D0D1E0002200235A
:103CA000089E3000099D290001F0BEF9002800D0CF
:103CB000DDE008980999069007918023DB001E9AA1
:103CC0001A400D921E9A1A4201D106231C9306989F
:103CD000079904000D000A000600024300D1D1E05C
:103CE000080D4005400DBE4CA44660440A03120B6B
:103CF000BC4B13431F0001F0C5F9BB4ABB4B01F09D
:103D00004CF9BB4ABB4B01F029F904000D0000221D
:103D1000B94B3000390001F01CF9B84AB84B01F03A
:103D20003CF902000B002000290001F017F901F016
:103D3000C1F9814601F0A6F904000D00B14AB24B69
:103D400001F02BF90022B14B01F008F901F0B2F9B2
:103D50000600AF4AAF4B2000290001F01EF9040015
:103D60000D00300001F08EF9AB4AAC4B01F015F9B3
:103D700002000B002000290001F0EBF804000D0008
:103D800002000B0001F009F90A900B91A44BF31803
:103D900000261F0522002B002000290001F0DEF87C
:103DA0000E900F9122002B0000208021C90501F008
:103DB000D0F804000D0000229A4B0A980B9901F0EC
:103DC000D2F80022984B01F0C9F802000B000A98C3
:103DD0000B9901F0C8F80022944B01F0BFF80200E3
:103DE0000B000A980B9901F0BEF802000B002000AE
:103DF000290001F0B3F802000B000E980F9901F0B2
:103E0000B2F80022774B01F0A9F832003B0001F034
:103E1000C4F806000F0004000D00069A079B01F08D
:103E200019F9002830D001235B429C46E14400226E
:103E30007D4B3000390001F096F804000D0023E0BE
:103E40001E9B04931D9B03931C9B0293089A099B42
:103E50000092019343460C9A5146584600F0FCF8F4
:103E600011B0F0BCBB46B246A946A046F0BD002347
:103E7000002406930794069680231B069C466544FF
:103E800007951AE7002399464B466333C62B1ED885
:103E900004261E9B1B0526D52B0023430FD0644A06
:103EA000644B0698079901F0CDF8002879D00022DC
:103EB000614B0698079901F0B7F8002871D01C9B58
:103EC0004B4506DD4A46981A431E1C9303E005261F
:103ED000DFE700231C938023DB001E9A1A431E9207
:103EE0000026002399461D9B9E4264D29F1B0223FD
:103EF0001E9A1A400A921E9A134202D0002E00D037
:103F000000274B46002B07D022002B00069807996C
:103F100001F029F8069007910022002308980999DA
:103F200001F082F8002848D1444B1E9A13400493B4
:103F300003971C9B0293069B079C009301944346A6
:103F40000C9A5146584600F087F8002E00D187E7BA
:103F50001E9B9B063DD54525441C43460200514609
:103F60002800D8474B46DA179B1853400522059284
:103F7000013E0496002203920A3202924A46D00F72
:103F8000019000934346220051465846FFF78AFDB0
:103F90000A9B002B00D163E702005F460C9E1D9D2B
:103FA00054E01C9B002B9ED00D9B002B9BD01C9B98
:103FB000013B1C9397E7002799E7069C079D220089
:103FC000290080200006844661440B000692079376
:103FD000AAE76525C0E7C046FFFFEF7FFFFFEFFFC1
:103FE00001FCFFFF0000F03FFB799F501344D33FDB
:103FF000B3C8608B288AC63F0000F83F61436F63F7
:10400000A787D23F71A379094F930A400000E03F90
:104010001655B5BBB16B0240EF39FAFE422EE63FB2
:10402000FF03000000002C40000024400000184066
:104030002D431CEBE2361A3F80842E41FFF7FFFF31
:10404000541C434651462020B8472200931BAB42E4
:10405000F6D3100004E7C046F0B5DE4657464E469C
:104060004546E0B595B00690079193469946209F46
:104070001E9A1F9B1000190000F0F1FF002831D19B
:1040800001225242BF4B1E981F9900F0CDFF00281D
:1040900037D101225242BC4B1E981F9900F0DAFF23
:1040A00000283DD10022B94B1E981F9900F0D2FF85
:1040B000002850D10022B64B1E981F9900F0B4FF83
:1040C000002848D1002200231E981F9900F0ACFF61
:1040D000002850D100239846229B5B0500D4B6E00F
:1040E000002458E0229B0393219B02930323019316
:1040F000A84B00934B465A4607990698FFF7F2FBE8
:104100000EE1229B0393219B029304230193A24B74
:1041100000934B465A4607990698FFF7E3FBFFE0EA
:104120000423229A1A4022990B4210D09B4B002A5A
:104130000FD00422229903912199029101920093B8
:104140004B465A4607990698FFF7CCFBE8E0944B9C
:10415000EDE70322EEE7229B0493219B0393029752
:104160001E9B1F9C009301944B465A460799069844
:10417000FFF768FDD4E01E9A1F9B0020002100F08D
:10418000E8FE1E901F9101239846A5E70CAB302254
:104190001A55013F01341F2C01D8092FF6D81E985B
:1041A0001F9900F087FF050000F06CFF02000B0074
:1041B0001E981F9900F0CDFEFA007A4B9B181A68E2
:1041C0005B680A920B9300F0E8FE0890099100F0FA
:1041D00095FF060000F052FF02000B0008980999B5
:1041E00000F0B7FE0890099100226F4B00F032FFFB
:1041F00000282ED00136300000F040FF02000B00F6
:104200000A980B9900F016FF002801D0013500260E
:10421000002F2CD1280000F035FF02000B001E9863
:104220001F9900F096FE06000F0000225E4B00F082
:10423000FBFE002846D100225B4B3000390000F025
:1042400009FF00283ED1EB073CD501353AE00627AF
:1042500046E70022544B0898099900F0E5FE002833
:10426000D6D1002E01D0F307D2D50136D0E7AA4629
:104270001F2C11D8013F0A21300000F02FFC651CD3
:1042800030310CAB19550A21300000F027FC092E03
:104290000ED906002C00EBE755461F2C0CD87B1ED0
:1042A000002F09D00CAA302111551F000134F4E76A
:1042B0002B0055461C00F0E71F2C03D80CAB2E2218
:1042C0001A5501341F2C10D80A21280000F0DEFBFB
:1042D000661C30310CAB19550A21280000F0D6FBC2
:1042E000051E01D03400EDE734000323229A134069
:1042F000012B1CD01F2C06D84346002B32D00CAB10
:104300002D221A550134229B0393219B0293019481
:104310000CAB00934B465A4607990698FFF7E2FA12
:1043200015B0F0BCBB46B246A946A046F0BD219BE5
:10433000002B13D04346002B02D10C3313420FD075
:10434000219B013B2193190003E00CAB30221A554D
:1043500001348C42CED21F2CF7D9CBE72199F8E754
:104360002199F6E7229B5B0704D50CAB2B221A554B
:104370000134C8E7229B1B07C5D50CAB20221A5578
:104380000134C0E7FFFFEFFFFFFFEF7F65CDCD41B9
:1043900065CDCDC1144D0110184D01100C4D01100B
:1043A000084D0110004F01100000E03FF0B5DE465F
:1043B00057464E464546E0B593B082468B469046FA
:1043C0001193002900D1EBE200275546119B187884
:1043D000002800D1E7E2252809D07C1C43463A009A
:1043E0005946A847119B013311932700EEE701338B
:1043F00011930024119A11780B00203BD8B2102899
:1044000003D88300D048C3589F460B00303BDBB233
:10441000092B2CD92A292FD000230A93119B1A7813
:104420002E2A39D000239A46119A1378683BD9B2C4
:10443000122976D88B00C549CB589F4601231C43CF
:1044400001321192D6E702231C4301321192D1E7C7
:1044500004231C4301321192CCE708231C43013290
:104460001192C7E710231C4301321192C2E711A831
:10447000FFF726FA0A90D1E71C9B1A1D1C921868B8
:10448000002804DB0A90119B01331193C6E7022335
:104490001C4343420A93F6E78022D20014435A1C7D
:1044A00011925A781300303BDBB2092B04D92A2A27
:1044B00007D000239A46B7E711A8FFF701FA824612
:1044C000B2E71C9B1A1D1C921868002804DB824668
:1044D000119B01331193A7E70020F8E780235B00CD
:1044E0002343511C119152786C2A01D01C0018E012
:1044F000C0239B001C430131119112E08023234310
:10450000511C11915278682A01D01C0009E0C02387
:104510001C430131119104E080235B001C430132F4
:104520001192119B18780300253BDAB2532A00D967
:104530002CE29300864AD3589F4680239B001C435D
:1045400001321192EDE780235B001C43013211928E
:10455000E7E7782809D0582838D06F2838D0622863
:1045600038D010239C430A2600E01026582833D068
:10457000692803D0642801D00C229443630501D537
:104580000122944369282AD0642828D0A30500D5A5
:104590009FE0E30500D5B8E0630600D4CAE01C9AAA
:1045A000111D1C911168FF220A4005940A9B049377
:1045B00053460393029600230193009243463A0028
:1045C00059462800FFF76EFA070027E01026CDE7CE
:1045D0000826CBE70226C9E720221443C8E7A30533
:1045E00020D4E30550D4630666D51C9A111D1C9196
:1045F0001168FF220A40D317D118594005940A9B2D
:104600000493534603930296D20F019200914346BE
:104610003A0059462800FFF745FA0700119B01337D
:104620001193D3E61C9BDA1D07218A431100083140
:104630001C91116853689C46DB170C930D930C9AE0
:104640000D9B100048400E90624653400F930E9809
:104650000F990C9A0D9B801A99410E900F91089416
:104660000A9B0793534606930496002305936346DB
:10467000DA0F02920090019143463A005946280011
:10468000FFF76EFA0700C9E71C9A111D1C9112680A
:10469000D317D118594005940A9B049353460393AA
:1046A0000296D20F0192009143463A0059462800E3
:1046B000FFF7F8F90700B1E7230605D51C9A111D8D
:1046C0001C910023D25E96E71C9A111D1C91126862
:1046D00091E71C9BDA1D07218A43110008311C91C8
:1046E00008940A9B07935346069304960023059368
:1046F0000293136854680093019443463A00594664
:104700002800FFF72DFA070088E71C9A111D1C915D
:1047100005940A9B04935346039302960023019346
:104720001368009343463A0059462800FFF7BAF948
:10473000070073E723060DD51C9A111D1C91126802
:104740001204120C31E7C046204D0110644D0110D7
:10475000B04D01101C9A111D1C91126825E74628C6
:104760001AD01C9B0733072293431A0008321C926D
:1047700004940A9A0392524602925C681B68009362
:10478000019443463A0059462800FFF765FC0700AC
:10479000119B0133119319E620231C43E1E767289D
:1047A00001D0472802D180231B011C43452801D09A
:1047B000472801D120231C431C9B07330722934326
:1047C0001A0008321C9204940A9A039252460292EA
:1047D0005C681B680093019443463A0059462800E0
:1047E000FFF730FA0700119B01331193EEE5022326
:1047F0001A002240924623421FD001241C9B1A1DFE
:104800001C927A1C9146187843463A005946A847AC
:104810005346002B16D1119B013311934F46D5E51A
:10482000561C434659462020B847230032005C1CE2
:104830009D42F5D83D001700E0E701233A002F0024
:104840000A9DF4E74A46A9460A9D06E0571C4346DE
:1048500059462020C84734003A00661CA542F5D8C6
:104860004D469146D7E71C9B1A1D1C921B68994622
:104870005346002B00D1013B4E4601E001361300A8
:104880003278002A02D05A1E002BF7D14B46F21A7A
:1048900010928023DB0026001E401C4203D05245AC
:1048A00001D95346109302231A0022400B9223424F
:1048B00005D03A0037004C46A946554620E03A005C
:1048C000109B5F46B3462E0006E0551C4346390058
:1048D0002020B04723002A005C1C0A999942F4D892
:1048E00035005E46BB46109437004C46A9465546F7
:1048F00006E01D000134561C43465946C8473200A5
:104900002078002804D0002FF4D06B1E002DF0D1A9
:1049100017004D460B9B002B03D1119B01331193C4
:1049200054E50A9F109B06E0561C4346594620203A
:10493000A847230032005C1C9F42F5D81700ECE723
:1049400021231C431C9B1A1D1C921B680093059479
:1049500008230493534603931023029300230193E7
:1049600043463A0059462800FFF79CF80700119B80
:10497000013311932AE57C1C43463A005946252011
:10498000A847119B0133119327001FE57C1C434668
:104990003A005946A847119B01331193270015E5AA
:1049A0000A4B9A4610E5AA46474502D343465A1E8B
:1049B00000E03A00434659460020D047380013B083
:1049C000F0BCBB46B246A946A046F0BDB1380010C7
:1049D0000EB410B585B0010007AC08CC03940122D9
:1049E000009452420348FFF7E1FC05B010BC08BC3C
:1049F00003B01847A938001000B585B002900391A4
:104A00000121009313004A4202A90248FFF7CEFC9D
:104A100005B000BDB338001001480421014B184710
:104A2000700E0020554A0010014B9B68184700008B
:104A3000700E002010B5010018231B881422108866
:104A4000984710BD10B5010018231B881622108846
:104A5000984710BDF0B5C64600B507000E0000250A
:104A60000123984600E00135B5420AD2AC003C195A
:104A70002068FFF7DFFF20600028F4D1002398466C
:104A8000F1E7404680BCB846F0BD0000124A936F83
:104A90009B0815D29066D166002905D0FFE7FFE795
:104AA000FFE7516F106F704704B580210906C217E8
:104AB0005140002800D0C8430FF05AF8002104BD2F
:104AC000F0B5146E556E576F166FFFF7E3FF14665F
:104AD000556657671667F0BD000000D0114A936F06
:104AE0009B0813D210665166002905D0FFE7FFE747
:104AF000FFE7516F106F704704B5002801D0002008
:104B0000C0430FF035F8002104BDC046F0B5146E67
:104B1000556E576F166FFFF7E5FF146655665767BA
:104B20001667F0BD000000D094464A4A926F920882
:104B3000624601D228E0C046F0B5464E346E756E2E
:104B4000776F366F00F020F89446424A1466556637
:104B5000576716676246F0BD94463E4A926F9208C8
:104B6000624601D254E0C046F0B53A4E346E756EDE
:104B7000776F366F00F04CF89446364A14665566E7
:104B8000576716676246F0BD002B24DB11D0002961
:104B90003EDA00B5C943404200D1013100F038F897
:104BA000C943404200D10131DB43524200D10133BD
:104BB00000BD002AEBD1002801D1002905D000203A
:104BC000C90FC90701D1C043410800B50EF0C0FFAD
:104BD0000022002300BD00B500290ADBDB4352425E
:104BE00000D1013300F014F8C943404200D1013133
:104BF00000BDC943404200D10131DB43524200D1E4
:104C0000013300F005F8DB43524200D1013300BD0F
:104C1000002923D1002B18D1002A0CD0BC460D4FFF
:104C200038667A6600210023FFE7FFE7FFE77A6F27
:104C3000386F67467047002801D00748010000B56B
:104C40000EF086FF0022002300BD02000B000020B2
:104C500000217047000000D0FFFFFFFF002B00D0B5
:104C6000BFE0130C28D1002AE7D080B4114F396679
:104C70007A66FFE7FFE730B4040C7B6F396F1B04E3
:104C800023433B667A66FFE7FFE7FFE7C04684B24F
:104C90007B6F3D6F1B0423433B667A66FFE7FFE7AC
:104CA000C04600232C042D0C7A6F386F001969411F
:104CB000B0BC7047000000D0F0B594460025140E3B
:104CC00001D112020835140F01D112010435940FDD
:104CD00001D192000235D40F01D152000135D40B1D
:104CE0000134254F7C66254C3C660E0C93B2FFE7E1
:104CF000FFE7FFE73C6F6643360C7703BE4673431E
:104D0000DF0B5B04C01AB941130C7343DB18C91ADB
:104D1000CE086643360CB64493B273431F0F1B0193
:104D2000C01AB941130C73431F0B1B05C01AB941BC
:104D3000860D8F023E436643360C092D24DB520A52
:104D40007243801A7703460A6643360C16235B1BB0
:104D5000DE40DF40BF1964466643821B704604355F
:104D600006330100D940A840C01900D30131A24246
:104D700006D20023F0BD0000000000D0FFFFFFFFBF
:104D8000121B0130F3D3F1E709277F1BFE40644675
:104D9000A2B27243801A00D20139220C7243130C62
:104DA0001204821A99410B00704604351337010032
:104DB000F940A840801900D30131002B02D1A24252
:104DC0000AD2F0BD013000D30131121BFAD2013BEF
:104DD000F8D1A24200D2F0BD013000D30131121B44
:104DE000F7E7F0B51C0C00D080E00CB400251C0ADD
:104DF00004D11B02160E3343120208351C0B04D1DA
:104E00001B01160F3343120104359C0B04D19B0088
:104E1000960F334392000235DC0B02D192185B41AE
:104E200001351C00971864410134464F7C66464C9E
:104E30003C660E0CFFE7FFE7FFE7C0463C6F6643AA
:104E4000360C7703BE4697B27743C01B00D20139B8
:104E5000C01B00D201399FB27743C91BC91B170C75
:104E600077437E04FF0B801BB941CE086643360CA6
:104E70000C2D33DBB644120B1F053A431B0B97B2C4
:104E80007743C01B00D201399FB27743C91B170C6F
:104E900077433E043F0C801BB941860D8F023E4391
:104EA000664329277F1BFE400C3D7746AF40BF1964
:104EB00030BCA2B2ABB272437343801A9941220C48
:104EC0007243130C1204801A994102000B0001373F
:104ED000001BA941F9D2781E0021F0BD0C277F1BD1
:104EE000FE4077467F0BAF40FF19E0E700245D1CD2
:104EF00007D0144F7D663966FFE7FFE7FFE7FFE75E
:104F00003C6F95B29EB265436643401BB141150CA0
:104F10001E0C6543664336042F0C3E432D04401B94
:104F2000B141994204D202000B0020000021F0BDE3
:104F300001D19042F7D3801A994101349942F2D3BA
:104F4000F6E70000000000D0FFFFFFFF48404140AF
:104F5000484018B4134B5B68019308BD18B4114B5B
:104F60001B68019308BD94460F4A926F920805D2C0
:104F7000624618B40B4BDB68019308BD0A4AF0B5D2
:104F8000146E556E576F166F6246FFF7F2FF064AB2
:104F90001466556657671667F0BD18B4014B9B68D9
:104FA000019308BD90340020000000D0FFB55040B0
:104FB0004240504059404B40594000E0FFB5154F2A
:104FC0004C00640D03D0BC4204D10C0314D8002063
:104FD000090D09055C00640D03D0BC4204D11C031B
:104FE0000AD800221B0D1B0501264B4009D44B405B
:104FF00003D58B4200D18242FFBD9942FCD1904241
:10500000FFBD0B43DB1803431343F5D0C9434918D5
:10501000FFBD0000FF07000000B5FFF7CFFF01D084
:10502000002000BD012000BD00B5FFF7C7FF804193
:1050300000BDC04600B5FFF7C1FF01D9002000BD8B
:10504000012000BD00B5FFF7B1FF01D9002000BD70
:10505000012000BD00B5FFF7A9FF804100BD012080
:1050600040054A00121804D85A00121801D800202E
:105070007047012070470020704700000021002881
:1050800005D17047C1174840401AFAD0C90713B577
:10509000064B1B6898470CBC441CA2401005120B21
:1050A0000349091B09051943114310BD9035002020
:1050B0001F04000010B54C00620D8023D218DB00E5
:1050C000D21A5B057E2A10DD9E3A13DACC1709034B
:1050D000490819435242D140640001341532202A54
:1050E00005DAD0400843604310BD002010BD0846DB
:1050F000604310BDC80FC018013810BD18B4024B72
:105100005B6A019308BD00009034002018B4024B84
:10511000DB6D019308BD000090340020C94211D31B
:1051200000B549004908002200F014F8002904D411
:10513000002240428A41114600BD8021090600201C
:1051400000BD000018B4024BDB6E019308BD0000E7
:105150009034002018B4024B9B6F019308BD0000EF
:105160009034002018B4024BDB6F019308BD00009F
:105170009034002010B50148FEF778FB504F011025
:1051800070B513231C78012C14D0012C14DC022CD4
:1051900002DC1F4A1F4B9A641F48FFF74BFC1F4B52
:1051A000186070BD99001E481A4A885001331F2BA1
:1051B000F8D9EAE70023FAE71A48FFF743FC0500AD
:1051C0001948FFF73FFC023803789B007F2B19DD5D
:1051D000802229000F4800F0CFF9022CD7D1134BC1
:1051E0001A88B5231B029A4209D1114B1A88114B18
:1051F0009A4204D1104B1A88104B9A42C7D0002013
:10520000FEF734FB0E4B0F4A32210F48FEF794FA9B
:105210004D520010903400204C3300009035002097
:1052200075510010534400005346000054380000EC
:10523000D8380000494600009C380000594600005C
:10524000684F011010500110BC4F011007B56046A7
:10525000002800D100BE01880A0A0230DF2AFAD1F4
:10526000C9B2820804D3028840880004104300E0D9
:105270000068024A5050039007BD0000903400209F
:1052800051434343C9188C46110C83B24B4310B4AD
:10529000040C614392B280B2504362431C041B0C65
:1052A000001910BC59411304120CC018514161443B
:1052B000704700004840414048400E4B5B6818472B
:1052C0000C4B1B6818470C4A936F9B0802D2094B82
:1052D000DB681847F0B5146E556E576F166FFFF701
:1052E000F6FF054A1466556657671667F0BD014B11
:1052F0009B68184794350020000000D007B548404F
:105300004140484001E0C04607B54200120E03D0BC
:10531000FF2A03D1420218D8C00DC0054A00120E60
:1053200003D0FF2A03D14A020FD8C90DC9050122B3
:10533000414005D4414001D5814207BD884207BDA7
:105340000143491801D0C043001807BD00B5FFF75D
:10535000DBFF01D9002000BD012000BD01231B0699
:105360004200D21804D84A00D21801D80020704751
:1053700001207047C10FC90700D54042002817D04F
:10538000F44603B40B4B1B68984706BC81409E381B
:105390004042803107D20B0607D04900490AC005B8
:1053A0001043084360470130F8E7490A8902F5E7EE
:1053B000704700009035002041000A0E80231B0634
:1053C0007E2A0BDD9E3A0BDAC117400240081843D3
:1053D0005242D04049000131484370470020704795
:1053E000C00FC01801387047C0420DD300B540004F
:1053F0004008002100F00EF8002801D4404200BD12
:105400008020000600BD0000014BDB69184700004A
:1054100094350020014B5B6A18470000943500204A
:10542000014BDB6F184700009435002010B5014890
:10543000FEF71CFAC83D011070B513231E781848FA
:10544000FFF700FB0500012E11D0012E09DDAB1E78
:105450001B789B007F2B1DDD80222900114800F066
:105460008BF81148FFF7E6FA104B186070BD542214
:1054700001000C4800F080F8002300E001331F2BEE
:10548000E3D89A00074C1259002AF7D19A0008482D
:105490001051F3E7074B084A42210848FEF74CF940
:1054A00053460000943500204C3300009035002016
:1054B0002D54001024500110A85001105850011014
:1054C00070B504000A4E30000EF0BAFB20000AF05E
:1054D000D1FB050030000EF033FB002D05D02C1958
:1054E000044B9C4201D8280070BD0348FEF7BEF96A
:1054F000B018002000000420BC50011070B5050059
:105500000C000B4E30000EF09BFB2100280009F030
:10551000D3FB050030000EF013FB002D05D02C1935
:10552000044B9C4201D8280070BD0348FEF79EF949
:10553000B018002000000420BC50011070B5040019
:10554000054D28000EF07CFB20000AF09DFB280092
:105550000EF0F6FA70BDC046B018002001480421D4
:10556000014B1847800E0020554A0010014B1B6864
:1055700018470000800E0020014B5B6818470000B0
:10558000800E002010B50300080011001B6898472A
:1055900010BD0000F8B507000D001600437D002B7C
:1055A00002D0002400200CE0036811002800984776
:1055B0002DE03B7D10E0022115483B689847601CB8
:1055C0000134B44214DA002CF3DD2B19013B1B78B3
:1055D0000D3B5A425341DBB22A5D0A2AF0D1002B1F
:1055E000EED1A042E7DA211A28183B689847E2E793
:1055F000B04203DA311A28183B689847002E06DDBE
:10560000AD19013D2B780D3B5A4253413B75F8BD16
:10561000B051011070B505000368002B16D00C4B7B
:105620001C6805E0290004C92000FFF7B3FF2469C6
:10563000002C09D02368002BF9D0064B1B68002BE7
:10564000F0D0A342F3D1EDE700232B6070BDC0463C
:10565000B0290020B829002070B505000C000B68A7
:10566000802B05D021684B1C23606418257170BD08
:105670000800FFF7CFFFF5E7F0B583B007000E0095
:105680000092019328E0A368002B04D03100380079
:105690009847002827DC2469002C06D0134B1D688E
:1056A000002DF0D0A542F6D1EDE70099019A104BFC
:1056B0005B6A9A4209D80E48806A88420FD29A42A1
:1056C00001D0012302E0002300E00023002B08D1D9
:1056D00001200021FDF7C2F9064B1C68DCE701231D
:1056E000F4E70120404203B0F0BDC046B8290020D5
:1056F00000400540B029002010B5FDF78FF90200E9
:105700000B1E0BDB0D48002112184B41002B0BDB4D
:10571000002B0DDB0A480EF063FA10BD094B0A4A54
:105720003F210A48FEF708F801225242084BEFE7F2
:10573000044B054A3F210548FDF7FEFF40420F009C
:10574000B8180020D443011098510110F043011003
:10575000FFFFFF7F10B502480EF0F2F910BDC04602
:10576000B8180020F0B5CE46474680B583B0060095
:105770000D0090461C00FFF7BFFF81466B1C05D053
:10578000002C08D0194F1A4B1C6807E030000BF0B2
:10579000B7FA0500F4E7174FF5E72469002C17D096
:1057A0002368002BF9D0144B1B68002B01D0A342B7
:1057B000F3D12A0031002000B8474346002BECD03B
:1057C0006B46D91D0A230B7001222000B847E4E77D
:1057D0004B46002B07D16B1E9D41E8B203B0C0BC05
:1057E000B946B046F0BDFFF7B5FFF4E785550010A8
:1057F000B029002095550010B829002010B582B0BE
:1058000004006B46D81D0470002300220121FFF71D
:10581000A9FF200002B010BD10B582B004006B4695
:10582000D81D0470012300220121FFF79BFF2000F7
:1058300002B010BD10B5030008001100002B05D107
:10584000044B1A685B68FFF717FF10BD0120404248
:10585000FBE7C0469848011010B50300080014008B
:10586000013B012B06D8002300222100FFF77AFF1D
:10587000200010BD01204042FBE70EB40120404251
:1058800003B07047012040427047012040427047FA
:105890000120404270470300002002229A4240410A
:1058A00070470000094A01E010331A001368002B0A
:1058B00008D08342F8D1002907D10369136000237F
:1058C000036102E0002900D010607047B029002079
:1058D00010B5064B1C6801E098472469002C03D0E2
:1058E0006368002BF8D1F8E710BDC046B02900204E
:1058F00070B505000BF004FA04000023012201003A
:105900002800FFF72FFFFFF7E3FF200070BD000026
:1059100070B5A2B004000E00FFF7EEFE05000023F4
:1059200001933300220001A90848FFF765F804003D
:1059300001A8FFF76FFEFFF7CBFF002D02D120007B
:1059400022B070BDFFF706FFF9E7C04659560010B8
:105950000FB400B583B004A901C90191FFF7D8FFC6
:1059600003B008BC04B0184730B583B0040000256C
:10597000FDF754F802000B1E10DB12196B41002BCF
:1059800012DB002B14DB012101A8FFF775FE0028B4
:1059900002DB13D001AB187803B030BD0B4B0C4ABF
:1059A0003F210C48FDF7C8FE012252420A4BE8E7AE
:1059B000064B074A3F210748FDF7BEFE9E21074BD5
:1059C000074A49000748FDF7B7FEC046D443011017
:1059D00098510110F0430110FFFFFF7F5447011061
:1059E000845101103C51011070470000014B00220E
:1059F0001A7070478E3E02204B79FF2B0CD18B79A9
:105A0000002B0BD1CB79012B0AD1082A0AD98A782D
:105A1000054B1A70092000E0002070470020FCE7C9
:105A20000020FAE70020F8E78E3E022001207047B0
:105A300070B504000D000348FEF7FCFF03002900C9
:105A4000200098475542000010B5012926D1117950
:105A500053791B020B43124909788B4201D0002075
:105A60001DE05378012B03D0022B10D0002016E04C
:105A70009178D3781B021943DB0506D54B0A012028
:105A800098407F231940FFF7D3FF0020F9E76422F5
:105A900000210020FDF7F6FD012000E0012010BDEF
:105AA0008E3E02200123037000487047B45101105C
:105AB00010B50B784878000218438A781204104316
:105AC000CB781B0603439622D200934200D010BD30
:105AD00000210800FFF7ACFF024B1860024B196071
